{
  "contracts/helpers/arbitration/Arbitrator.sol": {
    "Arbitrator": {
      "abi": [
        {
          "anonymous": false,
          "inputs": [
            {
              "indexed": true,
              "internalType": "uint256",
              "name": "_disputeID",
              "type": "uint256"
            },
            {
              "indexed": true,
              "internalType": "contract Arbitrable",
              "name": "_arbitrable",
              "type": "address"
            }
          ],
          "name": "AppealDecision",
          "type": "event"
        },
        {
          "anonymous": false,
          "inputs": [
            {
              "indexed": true,
              "internalType": "uint256",
              "name": "_disputeID",
              "type": "uint256"
            },
            {
              "indexed": true,
              "internalType": "contract Arbitrable",
              "name": "_arbitrable",
              "type": "address"
            }
          ],
          "name": "AppealPossible",
          "type": "event"
        },
        {
          "anonymous": false,
          "inputs": [
            {
              "indexed": true,
              "internalType": "uint256",
              "name": "_disputeID",
              "type": "uint256"
            },
            {
              "indexed": true,
              "internalType": "contract Arbitrable",
              "name": "_arbitrable",
              "type": "address"
            }
          ],
          "name": "DisputeCreation",
          "type": "event"
        },
        {
          "inputs": [
            {
              "internalType": "uint256",
              "name": "_disputeID",
              "type": "uint256"
            },
            {
              "internalType": "bytes",
              "name": "_extraData",
              "type": "bytes"
            }
          ],
          "name": "appeal",
          "outputs": [],
          "stateMutability": "payable",
          "type": "function"
        },
        {
          "inputs": [
            {
              "internalType": "uint256",
              "name": "_disputeID",
              "type": "uint256"
            },
            {
              "internalType": "bytes",
              "name": "_extraData",
              "type": "bytes"
            }
          ],
          "name": "appealCost",
          "outputs": [
            {
              "internalType": "uint256",
              "name": "fee",
              "type": "uint256"
            }
          ],
          "stateMutability": "view",
          "type": "function"
        },
        {
          "inputs": [
            {
              "internalType": "uint256",
              "name": "_disputeID",
              "type": "uint256"
            }
          ],
          "name": "appealPeriod",
          "outputs": [
            {
              "internalType": "uint256",
              "name": "start",
              "type": "uint256"
            },
            {
              "internalType": "uint256",
              "name": "end",
              "type": "uint256"
            }
          ],
          "stateMutability": "view",
          "type": "function"
        },
        {
          "inputs": [
            {
              "internalType": "bytes",
              "name": "_extraData",
              "type": "bytes"
            }
          ],
          "name": "arbitrationCost",
          "outputs": [
            {
              "internalType": "uint256",
              "name": "fee",
              "type": "uint256"
            }
          ],
          "stateMutability": "view",
          "type": "function"
        },
        {
          "inputs": [
            {
              "internalType": "uint256",
              "name": "_choices",
              "type": "uint256"
            },
            {
              "internalType": "bytes",
              "name": "_extraData",
              "type": "bytes"
            }
          ],
          "name": "createDispute",
          "outputs": [
            {
              "internalType": "uint256",
              "name": "disputeID",
              "type": "uint256"
            }
          ],
          "stateMutability": "payable",
          "type": "function"
        },
        {
          "inputs": [
            {
              "internalType": "uint256",
              "name": "_disputeID",
              "type": "uint256"
            }
          ],
          "name": "currentRuling",
          "outputs": [
            {
              "internalType": "uint256",
              "name": "ruling",
              "type": "uint256"
            }
          ],
          "stateMutability": "view",
          "type": "function"
        },
        {
          "inputs": [
            {
              "internalType": "uint256",
              "name": "_disputeID",
              "type": "uint256"
            }
          ],
          "name": "disputeStatus",
          "outputs": [
            {
              "internalType": "enum Arbitrator.DisputeStatus",
              "name": "status",
              "type": "uint8"
            }
          ],
          "stateMutability": "view",
          "type": "function"
        }
      ],
      "evm": {
        "bytecode": {
          "linkReferences": {},
          "object": "608060405234801561001057600080fd5b50610433806100206000396000f3fe6080604052600436106100605760003560e01c806310f169e8146100655780631c3db16d1461009b57806349912f88146100c3578063afe15cfb146100d8578063c13517e114610106578063f23f16e614610119578063f7434ea914610139575b600080fd5b34801561007157600080fd5b506100856100803660046102bd565b610154565b6040516100929190610319565b60405180910390f35b3480156100a757600080fd5b506100b66100803660046102bd565b60405161009291906103d0565b6100d66100d13660046102d5565b61015a565b005b3480156100e457600080fd5b506100f86100f33660046102bd565b6101c1565b6040516100929291906103d9565b6100b66101143660046102d5565b6101c9565b34801561012557600080fd5b506100b66101343660046102d5565b6101fb565b34801561014557600080fd5b506100b6610080366004610283565b50600090565b818161016682826101fb565b34101561018e5760405162461bcd60e51b815260040161018590610341565b60405180910390fd5b604051339085907f9c9b64db9e130f48381bf697abf638e73117dbfbfd7a4484f2da3ba188f4187d90600090a350505050565b600080915091565b6000816101d581610154565b3410156101f45760405162461bcd60e51b815260040161018590610386565b5092915050565b600092915050565b600082601f830112610213578081fd5b81356001600160401b038082111561022d5761022d6103e7565b604051601f8301601f191681016020018281118282101715610251576102516103e7565b604052828152848301602001861015610268578384fd5b82602086016020830137918201602001929092529392505050565b600060208284031215610294578081fd5b81356001600160401b038111156102a9578182fd5b6102b584828501610203565b949350505050565b6000602082840312156102ce578081fd5b5035919050565b600080604083850312156102e7578081fd5b8235915060208301356001600160401b03811115610303578182fd5b61030f85828601610203565b9150509250929050565b602081016003831061033b57634e487b7160e01b600052602160045260246000fd5b91905290565b60208082526025908201527f4e6f7420656e6f7567682045544820746f20636f7665722061707065616c206360408201526437b9ba399760d91b606082015260800190565b6020808252602a908201527f4e6f7420656e6f7567682045544820746f20636f76657220617262697472617460408201526934b7b71031b7b9ba399760b11b606082015260800190565b90815260200190565b918252602082015260400190565b634e487b7160e01b600052604160045260246000fdfea264697066735822122028d384c4a46dc211a1d3acd655d20846e3e685921003522483ec173aea3cd06464736f6c63430008000033",
          "opcodes": "PUSH1 0x80 PUSH1 0x40 MSTORE CALLVALUE DUP1 ISZERO PUSH2 0x10 JUMPI PUSH1 0x0 DUP1 REVERT JUMPDEST POP PUSH2 0x433 DUP1 PUSH2 0x20 PUSH1 0x0 CODECOPY PUSH1 0x0 RETURN INVALID PUSH1 0x80 PUSH1 0x40 MSTORE PUSH1 0x4 CALLDATASIZE LT PUSH2 0x60 JUMPI PUSH1 0x0 CALLDATALOAD PUSH1 0xE0 SHR DUP1 PUSH4 0x10F169E8 EQ PUSH2 0x65 JUMPI DUP1 PUSH4 0x1C3DB16D EQ PUSH2 0x9B JUMPI DUP1 PUSH4 0x49912F88 EQ PUSH2 0xC3 JUMPI DUP1 PUSH4 0xAFE15CFB EQ PUSH2 0xD8 JUMPI DUP1 PUSH4 0xC13517E1 EQ PUSH2 0x106 JUMPI DUP1 PUSH4 0xF23F16E6 EQ PUSH2 0x119 JUMPI DUP1 PUSH4 0xF7434EA9 EQ PUSH2 0x139 JUMPI JUMPDEST PUSH1 0x0 DUP1 REVERT JUMPDEST CALLVALUE DUP1 ISZERO PUSH2 0x71 JUMPI PUSH1 0x0 DUP1 REVERT JUMPDEST POP PUSH2 0x85 PUSH2 0x80 CALLDATASIZE PUSH1 0x4 PUSH2 0x2BD JUMP JUMPDEST PUSH2 0x154 JUMP JUMPDEST PUSH1 0x40 MLOAD PUSH2 0x92 SWAP2 SWAP1 PUSH2 0x319 JUMP JUMPDEST PUSH1 0x40 MLOAD DUP1 SWAP2 SUB SWAP1 RETURN JUMPDEST CALLVALUE DUP1 ISZERO PUSH2 0xA7 JUMPI PUSH1 0x0 DUP1 REVERT JUMPDEST POP PUSH2 0xB6 PUSH2 0x80 CALLDATASIZE PUSH1 0x4 PUSH2 0x2BD JUMP JUMPDEST PUSH1 0x40 MLOAD PUSH2 0x92 SWAP2 SWAP1 PUSH2 0x3D0 JUMP JUMPDEST PUSH2 0xD6 PUSH2 0xD1 CALLDATASIZE PUSH1 0x4 PUSH2 0x2D5 JUMP JUMPDEST PUSH2 0x15A JUMP JUMPDEST STOP JUMPDEST CALLVALUE DUP1 ISZERO PUSH2 0xE4 JUMPI PUSH1 0x0 DUP1 REVERT JUMPDEST POP PUSH2 0xF8 PUSH2 0xF3 CALLDATASIZE PUSH1 0x4 PUSH2 0x2BD JUMP JUMPDEST PUSH2 0x1C1 JUMP JUMPDEST PUSH1 0x40 MLOAD PUSH2 0x92 SWAP3 SWAP2 SWAP1 PUSH2 0x3D9 JUMP JUMPDEST PUSH2 0xB6 PUSH2 0x114 CALLDATASIZE PUSH1 0x4 PUSH2 0x2D5 JUMP JUMPDEST PUSH2 0x1C9 JUMP JUMPDEST CALLVALUE DUP1 ISZERO PUSH2 0x125 JUMPI PUSH1 0x0 DUP1 REVERT JUMPDEST POP PUSH2 0xB6 PUSH2 0x134 CALLDATASIZE PUSH1 0x4 PUSH2 0x2D5 JUMP JUMPDEST PUSH2 0x1FB JUMP JUMPDEST CALLVALUE DUP1 ISZERO PUSH2 0x145 JUMPI PUSH1 0x0 DUP1 REVERT JUMPDEST POP PUSH2 0xB6 PUSH2 0x80 CALLDATASIZE PUSH1 0x4 PUSH2 0x283 JUMP JUMPDEST POP PUSH1 0x0 SWAP1 JUMP JUMPDEST DUP2 DUP2 PUSH2 0x166 DUP3 DUP3 PUSH2 0x1FB JUMP JUMPDEST CALLVALUE LT ISZERO PUSH2 0x18E JUMPI PUSH1 0x40 MLOAD PUSH3 0x461BCD PUSH1 0xE5 SHL DUP2 MSTORE PUSH1 0x4 ADD PUSH2 0x185 SWAP1 PUSH2 0x341 JUMP JUMPDEST PUSH1 0x40 MLOAD DUP1 SWAP2 SUB SWAP1 REVERT JUMPDEST PUSH1 0x40 MLOAD CALLER SWAP1 DUP6 SWAP1 PUSH32 0x9C9B64DB9E130F48381BF697ABF638E73117DBFBFD7A4484F2DA3BA188F4187D SWAP1 PUSH1 0x0 SWAP1 LOG3 POP POP POP POP JUMP JUMPDEST PUSH1 0x0 DUP1 SWAP2 POP SWAP2 JUMP JUMPDEST PUSH1 0x0 DUP2 PUSH2 0x1D5 DUP2 PUSH2 0x154 JUMP JUMPDEST CALLVALUE LT ISZERO PUSH2 0x1F4 JUMPI PUSH1 0x40 MLOAD PUSH3 0x461BCD PUSH1 0xE5 SHL DUP2 MSTORE PUSH1 0x4 ADD PUSH2 0x185 SWAP1 PUSH2 0x386 JUMP JUMPDEST POP SWAP3 SWAP2 POP POP JUMP JUMPDEST PUSH1 0x0 SWAP3 SWAP2 POP POP JUMP JUMPDEST PUSH1 0x0 DUP3 PUSH1 0x1F DUP4 ADD SLT PUSH2 0x213 JUMPI DUP1 DUP2 REVERT JUMPDEST DUP2 CALLDATALOAD PUSH1 0x1 PUSH1 0x1 PUSH1 0x40 SHL SUB DUP1 DUP3 GT ISZERO PUSH2 0x22D JUMPI PUSH2 0x22D PUSH2 0x3E7 JUMP JUMPDEST PUSH1 0x40 MLOAD PUSH1 0x1F DUP4 ADD PUSH1 0x1F NOT AND DUP2 ADD PUSH1 0x20 ADD DUP3 DUP2 GT DUP3 DUP3 LT OR ISZERO PUSH2 0x251 JUMPI PUSH2 0x251 PUSH2 0x3E7 JUMP JUMPDEST PUSH1 0x40 MSTORE DUP3 DUP2 MSTORE DUP5 DUP4 ADD PUSH1 0x20 ADD DUP7 LT ISZERO PUSH2 0x268 JUMPI DUP4 DUP5 REVERT JUMPDEST DUP3 PUSH1 0x20 DUP7 ADD PUSH1 0x20 DUP4 ADD CALLDATACOPY SWAP2 DUP3 ADD PUSH1 0x20 ADD SWAP3 SWAP1 SWAP3 MSTORE SWAP4 SWAP3 POP POP POP JUMP JUMPDEST PUSH1 0x0 PUSH1 0x20 DUP3 DUP5 SUB SLT ISZERO PUSH2 0x294 JUMPI DUP1 DUP2 REVERT JUMPDEST DUP2 CALLDATALOAD PUSH1 0x1 PUSH1 0x1 PUSH1 0x40 SHL SUB DUP2 GT ISZERO PUSH2 0x2A9 JUMPI DUP2 DUP3 REVERT JUMPDEST PUSH2 0x2B5 DUP5 DUP3 DUP6 ADD PUSH2 0x203 JUMP JUMPDEST SWAP5 SWAP4 POP POP POP POP JUMP JUMPDEST PUSH1 0x0 PUSH1 0x20 DUP3 DUP5 SUB SLT ISZERO PUSH2 0x2CE JUMPI DUP1 DUP2 REVERT JUMPDEST POP CALLDATALOAD SWAP2 SWAP1 POP JUMP JUMPDEST PUSH1 0x0 DUP1 PUSH1 0x40 DUP4 DUP6 SUB SLT ISZERO PUSH2 0x2E7 JUMPI DUP1 DUP2 REVERT JUMPDEST DUP3 CALLDATALOAD SWAP2 POP PUSH1 0x20 DUP4 ADD CALLDATALOAD PUSH1 0x1 PUSH1 0x1 PUSH1 0x40 SHL SUB DUP2 GT ISZERO PUSH2 0x303 JUMPI DUP2 DUP3 REVERT JUMPDEST PUSH2 0x30F DUP6 DUP3 DUP7 ADD PUSH2 0x203 JUMP JUMPDEST SWAP2 POP POP SWAP3 POP SWAP3 SWAP1 POP JUMP JUMPDEST PUSH1 0x20 DUP2 ADD PUSH1 0x3 DUP4 LT PUSH2 0x33B JUMPI PUSH4 0x4E487B71 PUSH1 0xE0 SHL PUSH1 0x0 MSTORE PUSH1 0x21 PUSH1 0x4 MSTORE PUSH1 0x24 PUSH1 0x0 REVERT JUMPDEST SWAP2 SWAP1 MSTORE SWAP1 JUMP JUMPDEST PUSH1 0x20 DUP1 DUP3 MSTORE PUSH1 0x25 SWAP1 DUP3 ADD MSTORE PUSH32 0x4E6F7420656E6F7567682045544820746F20636F7665722061707065616C2063 PUSH1 0x40 DUP3 ADD MSTORE PUSH5 0x37B9BA3997 PUSH1 0xD9 SHL PUSH1 0x60 DUP3 ADD MSTORE PUSH1 0x80 ADD SWAP1 JUMP JUMPDEST PUSH1 0x20 DUP1 DUP3 MSTORE PUSH1 0x2A SWAP1 DUP3 ADD MSTORE PUSH32 0x4E6F7420656E6F7567682045544820746F20636F766572206172626974726174 PUSH1 0x40 DUP3 ADD MSTORE PUSH10 0x34B7B71031B7B9BA3997 PUSH1 0xB1 SHL PUSH1 0x60 DUP3 ADD MSTORE PUSH1 0x80 ADD SWAP1 JUMP JUMPDEST SWAP1 DUP2 MSTORE PUSH1 0x20 ADD SWAP1 JUMP JUMPDEST SWAP2 DUP3 MSTORE PUSH1 0x20 DUP3 ADD MSTORE PUSH1 0x40 ADD SWAP1 JUMP JUMPDEST PUSH4 0x4E487B71 PUSH1 0xE0 SHL PUSH1 0x0 MSTORE PUSH1 0x41 PUSH1 0x4 MSTORE PUSH1 0x24 PUSH1 0x0 REVERT INVALID LOG2 PUSH5 0x6970667358 0x22 SLT KECCAK256 0x28 0xD3 DUP5 0xC4 LOG4 PUSH14 0xC211A1D3ACD655D20846E3E68592 LT SUB MSTORE 0x24 DUP4 0xEC OR GASPRICE 0xEA EXTCODECOPY 0xD0 PUSH5 0x64736F6C63 NUMBER STOP ADDMOD STOP STOP CALLER "
        },
        "methodIdentifiers": {
          "appeal(uint256,bytes)": "49912f88",
          "appealCost(uint256,bytes)": "f23f16e6",
          "appealPeriod(uint256)": "afe15cfb",
          "arbitrationCost(bytes)": "f7434ea9",
          "createDispute(uint256,bytes)": "c13517e1",
          "currentRuling(uint256)": "1c3db16d",
          "disputeStatus(uint256)": "10f169e8"
        }
      }
    }
  }
}