{
  "contracts/bets/SimpleBet.sol": {
    "SimpleBet": {
      "abi": [
        {
          "inputs": [
            {
              "internalType": "address",
              "name": "partyA_",
              "type": "address"
            },
            {
              "internalType": "address",
              "name": "partyB_",
              "type": "address"
            },
            {
              "internalType": "uint256",
              "name": "pricePartyA_",
              "type": "uint256"
            },
            {
              "internalType": "uint256",
              "name": "pricePartyB_",
              "type": "uint256"
            },
            {
              "internalType": "uint256",
              "name": "deadline_",
              "type": "uint256"
            },
            {
              "internalType": "string",
              "name": "metaEvidence",
              "type": "string"
            }
          ],
          "stateMutability": "nonpayable",
          "type": "constructor"
        },
        {
          "anonymous": false,
          "inputs": [],
          "name": "BetArbitrationStarted",
          "type": "event"
        },
        {
          "anonymous": false,
          "inputs": [],
          "name": "BetStarted",
          "type": "event"
        },
        {
          "anonymous": false,
          "inputs": [
            {
              "indexed": true,
              "internalType": "address",
              "name": "winner",
              "type": "address"
            }
          ],
          "name": "Completed",
          "type": "event"
        },
        {
          "anonymous": false,
          "inputs": [
            {
              "indexed": true,
              "internalType": "address",
              "name": "depositor",
              "type": "address"
            }
          ],
          "name": "Deposited",
          "type": "event"
        },
        {
          "anonymous": false,
          "inputs": [
            {
              "indexed": true,
              "internalType": "contract Arbitrator",
              "name": "_arbitrator",
              "type": "address"
            },
            {
              "indexed": true,
              "internalType": "uint256",
              "name": "_disputeID",
              "type": "uint256"
            },
            {
              "indexed": false,
              "internalType": "uint256",
              "name": "_metaEvidenceID",
              "type": "uint256"
            },
            {
              "indexed": false,
              "internalType": "uint256",
              "name": "_evidenceGroupID",
              "type": "uint256"
            }
          ],
          "name": "Dispute",
          "type": "event"
        },
        {
          "anonymous": false,
          "inputs": [
            {
              "indexed": true,
              "internalType": "contract Arbitrator",
              "name": "_arbitrator",
              "type": "address"
            },
            {
              "indexed": true,
              "internalType": "uint256",
              "name": "_evidenceGroupID",
              "type": "uint256"
            },
            {
              "indexed": true,
              "internalType": "address",
              "name": "_party",
              "type": "address"
            },
            {
              "indexed": false,
              "internalType": "string",
              "name": "_evidence",
              "type": "string"
            }
          ],
          "name": "Evidence",
          "type": "event"
        },
        {
          "anonymous": false,
          "inputs": [
            {
              "indexed": true,
              "internalType": "uint256",
              "name": "_metaEvidenceID",
              "type": "uint256"
            },
            {
              "indexed": false,
              "internalType": "string",
              "name": "_evidence",
              "type": "string"
            }
          ],
          "name": "MetaEvidence",
          "type": "event"
        },
        {
          "anonymous": false,
          "inputs": [],
          "name": "Reclaimed",
          "type": "event"
        },
        {
          "anonymous": false,
          "inputs": [
            {
              "indexed": true,
              "internalType": "contract Arbitrator",
              "name": "_arbitrator",
              "type": "address"
            },
            {
              "indexed": true,
              "internalType": "uint256",
              "name": "_disputeID",
              "type": "uint256"
            },
            {
              "indexed": false,
              "internalType": "uint256",
              "name": "_ruling",
              "type": "uint256"
            }
          ],
          "name": "Ruling",
          "type": "event"
        },
        {
          "inputs": [],
          "name": "arbitrationFeeDepositPeriod",
          "outputs": [
            {
              "internalType": "uint256",
              "name": "",
              "type": "uint256"
            }
          ],
          "stateMutability": "view",
          "type": "function"
        },
        {
          "inputs": [],
          "name": "arbitrationStatus",
          "outputs": [
            {
              "internalType": "enum Arbitrable.ArbitrationStatus",
              "name": "",
              "type": "uint8"
            }
          ],
          "stateMutability": "view",
          "type": "function"
        },
        {
          "inputs": [],
          "name": "arbitrator",
          "outputs": [
            {
              "internalType": "contract Arbitrator",
              "name": "",
              "type": "address"
            }
          ],
          "stateMutability": "view",
          "type": "function"
        },
        {
          "inputs": [],
          "name": "balanceArbitrationFee",
          "outputs": [
            {
              "internalType": "uint256",
              "name": "",
              "type": "uint256"
            }
          ],
          "stateMutability": "view",
          "type": "function"
        },
        {
          "inputs": [],
          "name": "balancePartyA",
          "outputs": [
            {
              "internalType": "uint256",
              "name": "",
              "type": "uint256"
            }
          ],
          "stateMutability": "view",
          "type": "function"
        },
        {
          "inputs": [],
          "name": "balancePartyB",
          "outputs": [
            {
              "internalType": "uint256",
              "name": "",
              "type": "uint256"
            }
          ],
          "stateMutability": "view",
          "type": "function"
        },
        {
          "inputs": [],
          "name": "createdAt",
          "outputs": [
            {
              "internalType": "uint256",
              "name": "",
              "type": "uint256"
            }
          ],
          "stateMutability": "view",
          "type": "function"
        },
        {
          "inputs": [],
          "name": "deadline",
          "outputs": [
            {
              "internalType": "uint256",
              "name": "",
              "type": "uint256"
            }
          ],
          "stateMutability": "view",
          "type": "function"
        },
        {
          "inputs": [],
          "name": "deposit",
          "outputs": [],
          "stateMutability": "payable",
          "type": "function"
        },
        {
          "inputs": [],
          "name": "partyA",
          "outputs": [
            {
              "internalType": "address",
              "name": "",
              "type": "address"
            }
          ],
          "stateMutability": "view",
          "type": "function"
        },
        {
          "inputs": [],
          "name": "partyB",
          "outputs": [
            {
              "internalType": "address",
              "name": "",
              "type": "address"
            }
          ],
          "stateMutability": "view",
          "type": "function"
        },
        {
          "inputs": [],
          "name": "pricePartyA",
          "outputs": [
            {
              "internalType": "uint256",
              "name": "",
              "type": "uint256"
            }
          ],
          "stateMutability": "view",
          "type": "function"
        },
        {
          "inputs": [],
          "name": "pricePartyB",
          "outputs": [
            {
              "internalType": "uint256",
              "name": "",
              "type": "uint256"
            }
          ],
          "stateMutability": "view",
          "type": "function"
        },
        {
          "inputs": [],
          "name": "reclaimedAt",
          "outputs": [
            {
              "internalType": "uint256",
              "name": "",
              "type": "uint256"
            }
          ],
          "stateMutability": "view",
          "type": "function"
        },
        {
          "inputs": [],
          "name": "reclamationPeriod",
          "outputs": [
            {
              "internalType": "uint256",
              "name": "",
              "type": "uint256"
            }
          ],
          "stateMutability": "view",
          "type": "function"
        },
        {
          "inputs": [],
          "name": "resolveBet",
          "outputs": [],
          "stateMutability": "nonpayable",
          "type": "function"
        },
        {
          "inputs": [
            {
              "internalType": "uint256",
              "name": "_disputeID",
              "type": "uint256"
            },
            {
              "internalType": "uint256",
              "name": "_ruling",
              "type": "uint256"
            }
          ],
          "name": "rule",
          "outputs": [],
          "stateMutability": "nonpayable",
          "type": "function"
        },
        {
          "inputs": [],
          "name": "status",
          "outputs": [
            {
              "internalType": "enum SimpleBet.Status",
              "name": "",
              "type": "uint8"
            }
          ],
          "stateMutability": "view",
          "type": "function"
        },
        {
          "inputs": [
            {
              "internalType": "string",
              "name": "evidence",
              "type": "string"
            }
          ],
          "name": "submitEvidence",
          "outputs": [],
          "stateMutability": "nonpayable",
          "type": "function"
        }
      ],
      "evm": {
        "bytecode": {
          "linkReferences": {},
          "object": "60806040523480156200001157600080fd5b506040516200122638038062001226833981016040819052620000349162000129565b600080546001600160a01b031916735badcee6a4e3dc11e6441400982676b799e1f51490811782556002805460ff19169055604051909183917f61606860eb6c87306811e2695215385101daab53bd6ab4e9f9049aead9363c7d906200009c9084906200021c565b60405180910390a2505060028054600380546001600160a01b0319166001600160a01b03988916179055600495909555600593909355506006556000600781905560085562010000600160b01b03199091166201000093909216929092021761ff001916905542600a556200029a565b80516001600160a01b03811681146200012457600080fd5b919050565b60008060008060008060c0878903121562000142578182fd5b6200014d876200010c565b95506200015d602088016200010c565b6040880151606089015160808a015160a08b0151939850919650945092506001600160401b038082111562000190578283fd5b818901915089601f830112620001a4578283fd5b815181811115620001b957620001b962000284565b604051601f8201601f191681016020018381118282101715620001e057620001e062000284565b6040528181528382016020018c1015620001f8578485fd5b6200020b82602083016020870162000251565b809450505050509295509295509295565b60006020825282518060208401526200023d81604085016020870162000251565b601f01601f19169190910160400192915050565b60005b838110156200026e57818101518382015260200162000254565b838111156200027e576000848401525b50505050565b634e487b7160e01b600052604160045260246000fd5b610f7c80620002aa6000396000f3fe6080604052600436106100e45760003560e01c80630e718c79146100e957806310e1d8ca14610114578063200d2ed214610136578063290401131461015857806329dcb0cf1461016d578063311a6c5614610182578063345a47ea146101a457806347db7c79146101b957806369d5b466146101ce5780636b0aac71146101e35780636cc6cde1146101f8578063762b8295146101a45780638fced6261461020d578063bac91e2e14610222578063c4b8f2b614610242578063c7959c1814610257578063cf09e0d01461026c578063d0e30db014610281578063f71e3e0514610289575b600080fd5b3480156100f557600080fd5b506100fe6102ab565b60405161010b9190610e46565b60405180910390f35b34801561012057600080fd5b506101296102b1565b60405161010b9190610add565b34801561014257600080fd5b5061014b6102c6565b60405161010b9190610b0b565b34801561016457600080fd5b506101296102d4565b34801561017957600080fd5b506100fe6102e3565b34801561018e57600080fd5b506101a261019d366004610abc565b6102e9565b005b3480156101b057600080fd5b506100fe6103d7565b3480156101c557600080fd5b506100fe6103de565b3480156101da57600080fd5b506100fe6103e4565b3480156101ef57600080fd5b506100fe6103ea565b34801561020457600080fd5b506101296103f0565b34801561021957600080fd5b506101a26103ff565b34801561022e57600080fd5b506101a261023d366004610a04565b610587565b34801561024e57600080fd5b506100fe61065d565b34801561026357600080fd5b506100fe610663565b34801561027857600080fd5b506100fe610669565b6101a261066f565b34801561029557600080fd5b5061029e6108d9565b60405161010b9190610af1565b60095481565b6002546201000090046001600160a01b031681565b600254610100900460ff1681565b6003546001600160a01b031681565b60065481565b6000546001600160a01b0316331461031c5760405162461bcd60e51b815260040161031390610de5565b60405180910390fd5b6002805460ff16600381111561034257634e487b7160e01b600052602160045260246000fd5b1461035f5760405162461bcd60e51b815260040161031390610c38565b60028111156103805760405162461bcd60e51b815260040161031390610d62565b6002805460ff19166003179055604051829033907f394027a5fa6e098a1191094d1719d6929b9abc535fcc0c8f448d6a4e75622276906103c1908590610e46565b60405180910390a36103d382826108e2565b5050565b6203f48081565b60045481565b60075481565b60015481565b6000546001600160a01b031681565b6001600254610100900460ff16600481111561042b57634e487b7160e01b600052602160045260246000fd5b146104485760405162461bcd60e51b815260040161031390610d97565b60065442101561046a5760405162461bcd60e51b815260040161031390610d1d565b6000805460095460405163c13517e160e01b81526001600160a01b039092169163c13517e191906104a090600290600401610e4f565b6020604051808303818588803b1580156104b957600080fd5b505af11580156104cd573d6000803e3d6000fd5b50505050506040513d601f19601f820116820180604052508101906104f29190610aa4565b6002805460ff1916811790556000805460405192935083926001600160a01b03909116917f74baab670a4015ab2f1b467c5252a96141a2573f2908e58a92081e80d3cfde3d9161054491908190610e67565b60405180910390a36002805461ff0019166102001790556040517f4efaad0fe56106633f98cf9f45aa4e33100c3b7e4744abeb046bb1f494764ce090600090a150565b6002546201000090046001600160a01b03163314806105b057506003546001600160a01b031633145b6105cc5760405162461bcd60e51b815260040161031390610cd5565b600360025460ff1660038111156105f357634e487b7160e01b600052602160045260246000fd5b14156106115760405162461bcd60e51b815260040161031390610c04565b600080546040513392916001600160a01b0316907fdccf2f8b2cc26eafcd61905cba744cff4b81d14740725f6376390dc6298a6a3c90610652908690610b1f565b60405180910390a450565b60085481565b60055481565b600a5481565b6002546201000090046001600160a01b031633148061069857506003546001600160a01b031633145b6106b45760405162461bcd60e51b815260040161031390610cd5565b6000600254610100900460ff1660048111156106e057634e487b7160e01b600052602160045260246000fd5b146106fd5760405162461bcd60e51b815260040161031390610c8f565b6000805460405163f7434ea960e01b81526001600160a01b039091169063f7434ea99061072c90600401610e35565b60206040518083038186803b15801561074457600080fd5b505afa158015610758573d6000803e3d6000fd5b505050506040513d601f19601f8201168201806040525081019061077c9190610aa4565b9050600061078b600283610e8d565b905060006107998234610ead565b6002549091506201000090046001600160a01b03163314156107f35760045481146107d65760405162461bcd60e51b815260040161031390610bbb565b80600760008282546107e89190610e75565b9091555061082c9050565b60055481146108145760405162461bcd60e51b815260040161031390610b72565b80600860008282546108269190610e75565b90915550505b816009600082825461083e9190610e75565b90915550506004546007541480156108595750600554600854145b8015610866575082600954145b156108a8576002805461ff0019166101001790556040517fddf0cabc180eeed2e5bf96eb969cbb08929a8ce2e66520183e54fe17a8e6a36e90600090a16108d4565b60405133907f20a3fe276908af20d1fa2f8f48225ac6a1997eb2d38695c580adeb4124a1a59b90600090a25b505050565b60025460ff1681565b801580156109485760028054906101000a90046001600160a01b03166001600160a01b03166108fc60085460075461091a9190610e75565b6040518115909202916000818181858888f19350505050158015610942573d6000803e3d6000fd5b50610994565b6003546008546007546001600160a01b03909216916108fc9161096a91610e75565b6040518115909202916000818181858888f19350505050158015610992573d6000803e3d6000fd5b505b6002805461ff00191661030017905580156109d957600254604051620100009091046001600160a01b031690600080516020610f2783398151915290600090a26108d4565b6003546040516001600160a01b0390911690600080516020610f2783398151915290600090a2505050565b60006020808385031215610a16578182fd5b82356001600160401b0380821115610a2c578384fd5b818501915085601f830112610a3f578384fd5b813581811115610a5157610a51610ef0565b604051601f8201601f1916810185018381118282101715610a7457610a74610ef0565b6040528181528382018501881015610a8a578586fd5b818585018683013790810190930193909352509392505050565b600060208284031215610ab5578081fd5b5051919050565b60008060408385031215610ace578081fd5b50508035926020909101359150565b6001600160a01b0391909116815260200190565b6020810160048310610b0557610b05610eda565b91905290565b6020810160058310610b0557610b05610eda565b6000602080835283518082850152825b81811015610b4b57858101830151858201604001528201610b2f565b81811115610b5c5783604083870101525b50601f01601f1916929092016040019392505050565b6020808252603b90820152600080516020610f0783398151915260408201527a756e7420287072696365506172747942202b20666565202f20322960281b606082015260800190565b6020808252603b90820152600080516020610f0783398151915260408201527a756e7420287072696365506172747941202b20666565202f20322960281b606082015260800190565b6020808252601a908201527914da5b5c1b1950995d0e8818995d081a5cc81c995cdbdb1d995960321b604082015260600190565b60208082526037908201527f41726269747261626c653a2074686572652073686f756c64206265206469737060408201527675746520746f206578656375746520612072756c696e6760481b606082015260800190565b60208082526026908201527f53696d706c654265743a20626574206973206e6f7420696e20696e697469616c60408201526520706861736560d01b606082015260800190565b60208082526028908201527f53696d706c654265743a2063616c6c6572206973206e6f742070617274206f66604082015267081d1a194818995d60c21b606082015260800190565b60208082526025908201527f53696d706c654265743a20646561646c696e65206861736e277420706173736560408201526419081e595d60da1b606082015260800190565b6020808252818101527f41726269747261626c653a2072756c696e67206f7574206f6620626f756e6473604082015260600190565b6020808252602e908201527f53696d706c654265743a207061727469657320686176656e277420706169642060408201526d1d1a195a5c8818995d1cc81e595d60921b606082015260800190565b60208082526030908201527f41726269747261626c653a2063616e206f6e6c792062652063616c6c6564206260408201526f3c903a34329030b93134ba3930ba37b960811b606082015260800190565b602080825260009082015260400190565b90815260200190565b90815260406020820181905260009082015260600190565b918252602082015260400190565b60008219821115610e8857610e88610ec4565b500190565b600082610ea857634e487b7160e01b81526012600452602481fd5b500490565b600082821015610ebf57610ebf610ec4565b500390565b634e487b7160e01b600052601160045260246000fd5b634e487b7160e01b600052602160045260246000fd5b634e487b7160e01b600052604160045260246000fdfe53696d706c654265743a206d7573742070617920726571756972656420616d6fa1026cbe28583bb9d49fa77a384dd9ae2610003b8b30e30bc20452c1e16a0a44a26469706673582212204db4a955e6be8bdb830508c94d3e77d57cc072aba3b4335c3f1deac5d9dadba464736f6c63430008000033",
          "opcodes": "PUSH1 0x80 PUSH1 0x40 MSTORE CALLVALUE DUP1 ISZERO PUSH3 0x11 JUMPI PUSH1 0x0 DUP1 REVERT JUMPDEST POP PUSH1 0x40 MLOAD PUSH3 0x1226 CODESIZE SUB DUP1 PUSH3 0x1226 DUP4 CODECOPY DUP2 ADD PUSH1 0x40 DUP2 SWAP1 MSTORE PUSH3 0x34 SWAP2 PUSH3 0x129 JUMP JUMPDEST PUSH1 0x0 DUP1 SLOAD PUSH1 0x1 PUSH1 0x1 PUSH1 0xA0 SHL SUB NOT AND PUSH20 0x5BADCEE6A4E3DC11E6441400982676B799E1F514 SWAP1 DUP2 OR DUP3 SSTORE PUSH1 0x2 DUP1 SLOAD PUSH1 0xFF NOT AND SWAP1 SSTORE PUSH1 0x40 MLOAD SWAP1 SWAP2 DUP4 SWAP2 PUSH32 0x61606860EB6C87306811E2695215385101DAAB53BD6AB4E9F9049AEAD9363C7D SWAP1 PUSH3 0x9C SWAP1 DUP5 SWAP1 PUSH3 0x21C JUMP JUMPDEST PUSH1 0x40 MLOAD DUP1 SWAP2 SUB SWAP1 LOG2 POP POP PUSH1 0x2 DUP1 SLOAD PUSH1 0x3 DUP1 SLOAD PUSH1 0x1 PUSH1 0x1 PUSH1 0xA0 SHL SUB NOT AND PUSH1 0x1 PUSH1 0x1 PUSH1 0xA0 SHL SUB SWAP9 DUP10 AND OR SWAP1 SSTORE PUSH1 0x4 SWAP6 SWAP1 SWAP6 SSTORE PUSH1 0x5 SWAP4 SWAP1 SWAP4 SSTORE POP PUSH1 0x6 SSTORE PUSH1 0x0 PUSH1 0x7 DUP2 SWAP1 SSTORE PUSH1 0x8 SSTORE PUSH3 0x10000 PUSH1 0x1 PUSH1 0xB0 SHL SUB NOT SWAP1 SWAP2 AND PUSH3 0x10000 SWAP4 SWAP1 SWAP3 AND SWAP3 SWAP1 SWAP3 MUL OR PUSH2 0xFF00 NOT AND SWAP1 SSTORE TIMESTAMP PUSH1 0xA SSTORE PUSH3 0x29A JUMP JUMPDEST DUP1 MLOAD PUSH1 0x1 PUSH1 0x1 PUSH1 0xA0 SHL SUB DUP2 AND DUP2 EQ PUSH3 0x124 JUMPI PUSH1 0x0 DUP1 REVERT JUMPDEST SWAP2 SWAP1 POP JUMP JUMPDEST PUSH1 0x0 DUP1 PUSH1 0x0 DUP1 PUSH1 0x0 DUP1 PUSH1 0xC0 DUP8 DUP10 SUB SLT ISZERO PUSH3 0x142 JUMPI DUP2 DUP3 REVERT JUMPDEST PUSH3 0x14D DUP8 PUSH3 0x10C JUMP JUMPDEST SWAP6 POP PUSH3 0x15D PUSH1 0x20 DUP9 ADD PUSH3 0x10C JUMP JUMPDEST PUSH1 0x40 DUP9 ADD MLOAD PUSH1 0x60 DUP10 ADD MLOAD PUSH1 0x80 DUP11 ADD MLOAD PUSH1 0xA0 DUP12 ADD MLOAD SWAP4 SWAP9 POP SWAP2 SWAP7 POP SWAP5 POP SWAP3 POP PUSH1 0x1 PUSH1 0x1 PUSH1 0x40 SHL SUB DUP1 DUP3 GT ISZERO PUSH3 0x190 JUMPI DUP3 DUP4 REVERT JUMPDEST DUP2 DUP10 ADD SWAP2 POP DUP10 PUSH1 0x1F DUP4 ADD SLT PUSH3 0x1A4 JUMPI DUP3 DUP4 REVERT JUMPDEST DUP2 MLOAD DUP2 DUP2 GT ISZERO PUSH3 0x1B9 JUMPI PUSH3 0x1B9 PUSH3 0x284 JUMP JUMPDEST PUSH1 0x40 MLOAD PUSH1 0x1F DUP3 ADD PUSH1 0x1F NOT AND DUP2 ADD PUSH1 0x20 ADD DUP4 DUP2 GT DUP3 DUP3 LT OR ISZERO PUSH3 0x1E0 JUMPI PUSH3 0x1E0 PUSH3 0x284 JUMP JUMPDEST PUSH1 0x40 MSTORE DUP2 DUP2 MSTORE DUP4 DUP3 ADD PUSH1 0x20 ADD DUP13 LT ISZERO PUSH3 0x1F8 JUMPI DUP5 DUP6 REVERT JUMPDEST PUSH3 0x20B DUP3 PUSH1 0x20 DUP4 ADD PUSH1 0x20 DUP8 ADD PUSH3 0x251 JUMP JUMPDEST DUP1 SWAP5 POP POP POP POP POP SWAP3 SWAP6 POP SWAP3 SWAP6 POP SWAP3 SWAP6 JUMP JUMPDEST PUSH1 0x0 PUSH1 0x20 DUP3 MSTORE DUP3 MLOAD DUP1 PUSH1 0x20 DUP5 ADD MSTORE PUSH3 0x23D DUP2 PUSH1 0x40 DUP6 ADD PUSH1 0x20 DUP8 ADD PUSH3 0x251 JUMP JUMPDEST PUSH1 0x1F ADD PUSH1 0x1F NOT AND SWAP2 SWAP1 SWAP2 ADD PUSH1 0x40 ADD SWAP3 SWAP2 POP POP JUMP JUMPDEST PUSH1 0x0 JUMPDEST DUP4 DUP2 LT ISZERO PUSH3 0x26E JUMPI DUP2 DUP2 ADD MLOAD DUP4 DUP3 ADD MSTORE PUSH1 0x20 ADD PUSH3 0x254 JUMP JUMPDEST DUP4 DUP2 GT ISZERO PUSH3 0x27E JUMPI PUSH1 0x0 DUP5 DUP5 ADD MSTORE JUMPDEST POP POP POP POP JUMP JUMPDEST PUSH4 0x4E487B71 PUSH1 0xE0 SHL PUSH1 0x0 MSTORE PUSH1 0x41 PUSH1 0x4 MSTORE PUSH1 0x24 PUSH1 0x0 REVERT JUMPDEST PUSH2 0xF7C DUP1 PUSH3 0x2AA PUSH1 0x0 CODECOPY PUSH1 0x0 RETURN INVALID PUSH1 0x80 PUSH1 0x40 MSTORE PUSH1 0x4 CALLDATASIZE LT PUSH2 0xE4 JUMPI PUSH1 0x0 CALLDATALOAD PUSH1 0xE0 SHR DUP1 PUSH4 0xE718C79 EQ PUSH2 0xE9 JUMPI DUP1 PUSH4 0x10E1D8CA EQ PUSH2 0x114 JUMPI DUP1 PUSH4 0x200D2ED2 EQ PUSH2 0x136 JUMPI DUP1 PUSH4 0x29040113 EQ PUSH2 0x158 JUMPI DUP1 PUSH4 0x29DCB0CF EQ PUSH2 0x16D JUMPI DUP1 PUSH4 0x311A6C56 EQ PUSH2 0x182 JUMPI DUP1 PUSH4 0x345A47EA EQ PUSH2 0x1A4 JUMPI DUP1 PUSH4 0x47DB7C79 EQ PUSH2 0x1B9 JUMPI DUP1 PUSH4 0x69D5B466 EQ PUSH2 0x1CE JUMPI DUP1 PUSH4 0x6B0AAC71 EQ PUSH2 0x1E3 JUMPI DUP1 PUSH4 0x6CC6CDE1 EQ PUSH2 0x1F8 JUMPI DUP1 PUSH4 0x762B8295 EQ PUSH2 0x1A4 JUMPI DUP1 PUSH4 0x8FCED626 EQ PUSH2 0x20D JUMPI DUP1 PUSH4 0xBAC91E2E EQ PUSH2 0x222 JUMPI DUP1 PUSH4 0xC4B8F2B6 EQ PUSH2 0x242 JUMPI DUP1 PUSH4 0xC7959C18 EQ PUSH2 0x257 JUMPI DUP1 PUSH4 0xCF09E0D0 EQ PUSH2 0x26C JUMPI DUP1 PUSH4 0xD0E30DB0 EQ PUSH2 0x281 JUMPI DUP1 PUSH4 0xF71E3E05 EQ PUSH2 0x289 JUMPI JUMPDEST PUSH1 0x0 DUP1 REVERT JUMPDEST CALLVALUE DUP1 ISZERO PUSH2 0xF5 JUMPI PUSH1 0x0 DUP1 REVERT JUMPDEST POP PUSH2 0xFE PUSH2 0x2AB JUMP JUMPDEST PUSH1 0x40 MLOAD PUSH2 0x10B SWAP2 SWAP1 PUSH2 0xE46 JUMP JUMPDEST PUSH1 0x40 MLOAD DUP1 SWAP2 SUB SWAP1 RETURN JUMPDEST CALLVALUE DUP1 ISZERO PUSH2 0x120 JUMPI PUSH1 0x0 DUP1 REVERT JUMPDEST POP PUSH2 0x129 PUSH2 0x2B1 JUMP JUMPDEST PUSH1 0x40 MLOAD PUSH2 0x10B SWAP2 SWAP1 PUSH2 0xADD JUMP JUMPDEST CALLVALUE DUP1 ISZERO PUSH2 0x142 JUMPI PUSH1 0x0 DUP1 REVERT JUMPDEST POP PUSH2 0x14B PUSH2 0x2C6 JUMP JUMPDEST PUSH1 0x40 MLOAD PUSH2 0x10B SWAP2 SWAP1 PUSH2 0xB0B JUMP JUMPDEST CALLVALUE DUP1 ISZERO PUSH2 0x164 JUMPI PUSH1 0x0 DUP1 REVERT JUMPDEST POP PUSH2 0x129 PUSH2 0x2D4 JUMP JUMPDEST CALLVALUE DUP1 ISZERO PUSH2 0x179 JUMPI PUSH1 0x0 DUP1 REVERT JUMPDEST POP PUSH2 0xFE PUSH2 0x2E3 JUMP JUMPDEST CALLVALUE DUP1 ISZERO PUSH2 0x18E JUMPI PUSH1 0x0 DUP1 REVERT JUMPDEST POP PUSH2 0x1A2 PUSH2 0x19D CALLDATASIZE PUSH1 0x4 PUSH2 0xABC JUMP JUMPDEST PUSH2 0x2E9 JUMP JUMPDEST STOP JUMPDEST CALLVALUE DUP1 ISZERO PUSH2 0x1B0 JUMPI PUSH1 0x0 DUP1 REVERT JUMPDEST POP PUSH2 0xFE PUSH2 0x3D7 JUMP JUMPDEST CALLVALUE DUP1 ISZERO PUSH2 0x1C5 JUMPI PUSH1 0x0 DUP1 REVERT JUMPDEST POP PUSH2 0xFE PUSH2 0x3DE JUMP JUMPDEST CALLVALUE DUP1 ISZERO PUSH2 0x1DA JUMPI PUSH1 0x0 DUP1 REVERT JUMPDEST POP PUSH2 0xFE PUSH2 0x3E4 JUMP JUMPDEST CALLVALUE DUP1 ISZERO PUSH2 0x1EF JUMPI PUSH1 0x0 DUP1 REVERT JUMPDEST POP PUSH2 0xFE PUSH2 0x3EA JUMP JUMPDEST CALLVALUE DUP1 ISZERO PUSH2 0x204 JUMPI PUSH1 0x0 DUP1 REVERT JUMPDEST POP PUSH2 0x129 PUSH2 0x3F0 JUMP JUMPDEST CALLVALUE DUP1 ISZERO PUSH2 0x219 JUMPI PUSH1 0x0 DUP1 REVERT JUMPDEST POP PUSH2 0x1A2 PUSH2 0x3FF JUMP JUMPDEST CALLVALUE DUP1 ISZERO PUSH2 0x22E JUMPI PUSH1 0x0 DUP1 REVERT JUMPDEST POP PUSH2 0x1A2 PUSH2 0x23D CALLDATASIZE PUSH1 0x4 PUSH2 0xA04 JUMP JUMPDEST PUSH2 0x587 JUMP JUMPDEST CALLVALUE DUP1 ISZERO PUSH2 0x24E JUMPI PUSH1 0x0 DUP1 REVERT JUMPDEST POP PUSH2 0xFE PUSH2 0x65D JUMP JUMPDEST CALLVALUE DUP1 ISZERO PUSH2 0x263 JUMPI PUSH1 0x0 DUP1 REVERT JUMPDEST POP PUSH2 0xFE PUSH2 0x663 JUMP JUMPDEST CALLVALUE DUP1 ISZERO PUSH2 0x278 JUMPI PUSH1 0x0 DUP1 REVERT JUMPDEST POP PUSH2 0xFE PUSH2 0x669 JUMP JUMPDEST PUSH2 0x1A2 PUSH2 0x66F JUMP JUMPDEST CALLVALUE DUP1 ISZERO PUSH2 0x295 JUMPI PUSH1 0x0 DUP1 REVERT JUMPDEST POP PUSH2 0x29E PUSH2 0x8D9 JUMP JUMPDEST PUSH1 0x40 MLOAD PUSH2 0x10B SWAP2 SWAP1 PUSH2 0xAF1 JUMP JUMPDEST PUSH1 0x9 SLOAD DUP2 JUMP JUMPDEST PUSH1 0x2 SLOAD PUSH3 0x10000 SWAP1 DIV PUSH1 0x1 PUSH1 0x1 PUSH1 0xA0 SHL SUB AND DUP2 JUMP JUMPDEST PUSH1 0x2 SLOAD PUSH2 0x100 SWAP1 DIV PUSH1 0xFF AND DUP2 JUMP JUMPDEST PUSH1 0x3 SLOAD PUSH1 0x1 PUSH1 0x1 PUSH1 0xA0 SHL SUB AND DUP2 JUMP JUMPDEST PUSH1 0x6 SLOAD DUP2 JUMP JUMPDEST PUSH1 0x0 SLOAD PUSH1 0x1 PUSH1 0x1 PUSH1 0xA0 SHL SUB AND CALLER EQ PUSH2 0x31C JUMPI PUSH1 0x40 MLOAD PUSH3 0x461BCD PUSH1 0xE5 SHL DUP2 MSTORE PUSH1 0x4 ADD PUSH2 0x313 SWAP1 PUSH2 0xDE5 JUMP JUMPDEST PUSH1 0x40 MLOAD DUP1 SWAP2 SUB SWAP1 REVERT JUMPDEST PUSH1 0x2 DUP1 SLOAD PUSH1 0xFF AND PUSH1 0x3 DUP2 GT ISZERO PUSH2 0x342 JUMPI PUSH4 0x4E487B71 PUSH1 0xE0 SHL PUSH1 0x0 MSTORE PUSH1 0x21 PUSH1 0x4 MSTORE PUSH1 0x24 PUSH1 0x0 REVERT JUMPDEST EQ PUSH2 0x35F JUMPI PUSH1 0x40 MLOAD PUSH3 0x461BCD PUSH1 0xE5 SHL DUP2 MSTORE PUSH1 0x4 ADD PUSH2 0x313 SWAP1 PUSH2 0xC38 JUMP JUMPDEST PUSH1 0x2 DUP2 GT ISZERO PUSH2 0x380 JUMPI PUSH1 0x40 MLOAD PUSH3 0x461BCD PUSH1 0xE5 SHL DUP2 MSTORE PUSH1 0x4 ADD PUSH2 0x313 SWAP1 PUSH2 0xD62 JUMP JUMPDEST PUSH1 0x2 DUP1 SLOAD PUSH1 0xFF NOT AND PUSH1 0x3 OR SWAP1 SSTORE PUSH1 0x40 MLOAD DUP3 SWAP1 CALLER SWAP1 PUSH32 0x394027A5FA6E098A1191094D1719D6929B9ABC535FCC0C8F448D6A4E75622276 SWAP1 PUSH2 0x3C1 SWAP1 DUP6 SWAP1 PUSH2 0xE46 JUMP JUMPDEST PUSH1 0x40 MLOAD DUP1 SWAP2 SUB SWAP1 LOG3 PUSH2 0x3D3 DUP3 DUP3 PUSH2 0x8E2 JUMP JUMPDEST POP POP JUMP JUMPDEST PUSH3 0x3F480 DUP2 JUMP JUMPDEST PUSH1 0x4 SLOAD DUP2 JUMP JUMPDEST PUSH1 0x7 SLOAD DUP2 JUMP JUMPDEST PUSH1 0x1 SLOAD DUP2 JUMP JUMPDEST PUSH1 0x0 SLOAD PUSH1 0x1 PUSH1 0x1 PUSH1 0xA0 SHL SUB AND DUP2 JUMP JUMPDEST PUSH1 0x1 PUSH1 0x2 SLOAD PUSH2 0x100 SWAP1 DIV PUSH1 0xFF AND PUSH1 0x4 DUP2 GT ISZERO PUSH2 0x42B JUMPI PUSH4 0x4E487B71 PUSH1 0xE0 SHL PUSH1 0x0 MSTORE PUSH1 0x21 PUSH1 0x4 MSTORE PUSH1 0x24 PUSH1 0x0 REVERT JUMPDEST EQ PUSH2 0x448 JUMPI PUSH1 0x40 MLOAD PUSH3 0x461BCD PUSH1 0xE5 SHL DUP2 MSTORE PUSH1 0x4 ADD PUSH2 0x313 SWAP1 PUSH2 0xD97 JUMP JUMPDEST PUSH1 0x6 SLOAD TIMESTAMP LT ISZERO PUSH2 0x46A JUMPI PUSH1 0x40 MLOAD PUSH3 0x461BCD PUSH1 0xE5 SHL DUP2 MSTORE PUSH1 0x4 ADD PUSH2 0x313 SWAP1 PUSH2 0xD1D JUMP JUMPDEST PUSH1 0x0 DUP1 SLOAD PUSH1 0x9 SLOAD PUSH1 0x40 MLOAD PUSH4 0xC13517E1 PUSH1 0xE0 SHL DUP2 MSTORE PUSH1 0x1 PUSH1 0x1 PUSH1 0xA0 SHL SUB SWAP1 SWAP3 AND SWAP2 PUSH4 0xC13517E1 SWAP2 SWAP1 PUSH2 0x4A0 SWAP1 PUSH1 0x2 SWAP1 PUSH1 0x4 ADD PUSH2 0xE4F JUMP JUMPDEST PUSH1 0x20 PUSH1 0x40 MLOAD DUP1 DUP4 SUB DUP2 DUP6 DUP9 DUP1 EXTCODESIZE ISZERO DUP1 ISZERO PUSH2 0x4B9 JUMPI PUSH1 0x0 DUP1 REVERT JUMPDEST POP GAS CALL ISZERO DUP1 ISZERO PUSH2 0x4CD JUMPI RETURNDATASIZE PUSH1 0x0 DUP1 RETURNDATACOPY RETURNDATASIZE PUSH1 0x0 REVERT JUMPDEST POP POP POP POP POP PUSH1 0x40 MLOAD RETURNDATASIZE PUSH1 0x1F NOT PUSH1 0x1F DUP3 ADD AND DUP3 ADD DUP1 PUSH1 0x40 MSTORE POP DUP2 ADD SWAP1 PUSH2 0x4F2 SWAP2 SWAP1 PUSH2 0xAA4 JUMP JUMPDEST PUSH1 0x2 DUP1 SLOAD PUSH1 0xFF NOT AND DUP2 OR SWAP1 SSTORE PUSH1 0x0 DUP1 SLOAD PUSH1 0x40 MLOAD SWAP3 SWAP4 POP DUP4 SWAP3 PUSH1 0x1 PUSH1 0x1 PUSH1 0xA0 SHL SUB SWAP1 SWAP2 AND SWAP2 PUSH32 0x74BAAB670A4015AB2F1B467C5252A96141A2573F2908E58A92081E80D3CFDE3D SWAP2 PUSH2 0x544 SWAP2 SWAP1 DUP2 SWAP1 PUSH2 0xE67 JUMP JUMPDEST PUSH1 0x40 MLOAD DUP1 SWAP2 SUB SWAP1 LOG3 PUSH1 0x2 DUP1 SLOAD PUSH2 0xFF00 NOT AND PUSH2 0x200 OR SWAP1 SSTORE PUSH1 0x40 MLOAD PUSH32 0x4EFAAD0FE56106633F98CF9F45AA4E33100C3B7E4744ABEB046BB1F494764CE0 SWAP1 PUSH1 0x0 SWAP1 LOG1 POP JUMP JUMPDEST PUSH1 0x2 SLOAD PUSH3 0x10000 SWAP1 DIV PUSH1 0x1 PUSH1 0x1 PUSH1 0xA0 SHL SUB AND CALLER EQ DUP1 PUSH2 0x5B0 JUMPI POP PUSH1 0x3 SLOAD PUSH1 0x1 PUSH1 0x1 PUSH1 0xA0 SHL SUB AND CALLER EQ JUMPDEST PUSH2 0x5CC JUMPI PUSH1 0x40 MLOAD PUSH3 0x461BCD PUSH1 0xE5 SHL DUP2 MSTORE PUSH1 0x4 ADD PUSH2 0x313 SWAP1 PUSH2 0xCD5 JUMP JUMPDEST PUSH1 0x3 PUSH1 0x2 SLOAD PUSH1 0xFF AND PUSH1 0x3 DUP2 GT ISZERO PUSH2 0x5F3 JUMPI PUSH4 0x4E487B71 PUSH1 0xE0 SHL PUSH1 0x0 MSTORE PUSH1 0x21 PUSH1 0x4 MSTORE PUSH1 0x24 PUSH1 0x0 REVERT JUMPDEST EQ ISZERO PUSH2 0x611 JUMPI PUSH1 0x40 MLOAD PUSH3 0x461BCD PUSH1 0xE5 SHL DUP2 MSTORE PUSH1 0x4 ADD PUSH2 0x313 SWAP1 PUSH2 0xC04 JUMP JUMPDEST PUSH1 0x0 DUP1 SLOAD PUSH1 0x40 MLOAD CALLER SWAP3 SWAP2 PUSH1 0x1 PUSH1 0x1 PUSH1 0xA0 SHL SUB AND SWAP1 PUSH32 0xDCCF2F8B2CC26EAFCD61905CBA744CFF4B81D14740725F6376390DC6298A6A3C SWAP1 PUSH2 0x652 SWAP1 DUP7 SWAP1 PUSH2 0xB1F JUMP JUMPDEST PUSH1 0x40 MLOAD DUP1 SWAP2 SUB SWAP1 LOG4 POP JUMP JUMPDEST PUSH1 0x8 SLOAD DUP2 JUMP JUMPDEST PUSH1 0x5 SLOAD DUP2 JUMP JUMPDEST PUSH1 0xA SLOAD DUP2 JUMP JUMPDEST PUSH1 0x2 SLOAD PUSH3 0x10000 SWAP1 DIV PUSH1 0x1 PUSH1 0x1 PUSH1 0xA0 SHL SUB AND CALLER EQ DUP1 PUSH2 0x698 JUMPI POP PUSH1 0x3 SLOAD PUSH1 0x1 PUSH1 0x1 PUSH1 0xA0 SHL SUB AND CALLER EQ JUMPDEST PUSH2 0x6B4 JUMPI PUSH1 0x40 MLOAD PUSH3 0x461BCD PUSH1 0xE5 SHL DUP2 MSTORE PUSH1 0x4 ADD PUSH2 0x313 SWAP1 PUSH2 0xCD5 JUMP JUMPDEST PUSH1 0x0 PUSH1 0x2 SLOAD PUSH2 0x100 SWAP1 DIV PUSH1 0xFF AND PUSH1 0x4 DUP2 GT ISZERO PUSH2 0x6E0 JUMPI PUSH4 0x4E487B71 PUSH1 0xE0 SHL PUSH1 0x0 MSTORE PUSH1 0x21 PUSH1 0x4 MSTORE PUSH1 0x24 PUSH1 0x0 REVERT JUMPDEST EQ PUSH2 0x6FD JUMPI PUSH1 0x40 MLOAD PUSH3 0x461BCD PUSH1 0xE5 SHL DUP2 MSTORE PUSH1 0x4 ADD PUSH2 0x313 SWAP1 PUSH2 0xC8F JUMP JUMPDEST PUSH1 0x0 DUP1 SLOAD PUSH1 0x40 MLOAD PUSH4 0xF7434EA9 PUSH1 0xE0 SHL DUP2 MSTORE PUSH1 0x1 PUSH1 0x1 PUSH1 0xA0 SHL SUB SWAP1 SWAP2 AND SWAP1 PUSH4 0xF7434EA9 SWAP1 PUSH2 0x72C SWAP1 PUSH1 0x4 ADD PUSH2 0xE35 JUMP JUMPDEST PUSH1 0x20 PUSH1 0x40 MLOAD DUP1 DUP4 SUB DUP2 DUP7 DUP1 EXTCODESIZE ISZERO DUP1 ISZERO PUSH2 0x744 JUMPI PUSH1 0x0 DUP1 REVERT JUMPDEST POP GAS STATICCALL ISZERO DUP1 ISZERO PUSH2 0x758 JUMPI RETURNDATASIZE PUSH1 0x0 DUP1 RETURNDATACOPY RETURNDATASIZE PUSH1 0x0 REVERT JUMPDEST POP POP POP POP PUSH1 0x40 MLOAD RETURNDATASIZE PUSH1 0x1F NOT PUSH1 0x1F DUP3 ADD AND DUP3 ADD DUP1 PUSH1 0x40 MSTORE POP DUP2 ADD SWAP1 PUSH2 0x77C SWAP2 SWAP1 PUSH2 0xAA4 JUMP JUMPDEST SWAP1 POP PUSH1 0x0 PUSH2 0x78B PUSH1 0x2 DUP4 PUSH2 0xE8D JUMP JUMPDEST SWAP1 POP PUSH1 0x0 PUSH2 0x799 DUP3 CALLVALUE PUSH2 0xEAD JUMP JUMPDEST PUSH1 0x2 SLOAD SWAP1 SWAP2 POP PUSH3 0x10000 SWAP1 DIV PUSH1 0x1 PUSH1 0x1 PUSH1 0xA0 SHL SUB AND CALLER EQ ISZERO PUSH2 0x7F3 JUMPI PUSH1 0x4 SLOAD DUP2 EQ PUSH2 0x7D6 JUMPI PUSH1 0x40 MLOAD PUSH3 0x461BCD PUSH1 0xE5 SHL DUP2 MSTORE PUSH1 0x4 ADD PUSH2 0x313 SWAP1 PUSH2 0xBBB JUMP JUMPDEST DUP1 PUSH1 0x7 PUSH1 0x0 DUP3 DUP3 SLOAD PUSH2 0x7E8 SWAP2 SWAP1 PUSH2 0xE75 JUMP JUMPDEST SWAP1 SWAP2 SSTORE POP PUSH2 0x82C SWAP1 POP JUMP JUMPDEST PUSH1 0x5 SLOAD DUP2 EQ PUSH2 0x814 JUMPI PUSH1 0x40 MLOAD PUSH3 0x461BCD PUSH1 0xE5 SHL DUP2 MSTORE PUSH1 0x4 ADD PUSH2 0x313 SWAP1 PUSH2 0xB72 JUMP JUMPDEST DUP1 PUSH1 0x8 PUSH1 0x0 DUP3 DUP3 SLOAD PUSH2 0x826 SWAP2 SWAP1 PUSH2 0xE75 JUMP JUMPDEST SWAP1 SWAP2 SSTORE POP POP JUMPDEST DUP2 PUSH1 0x9 PUSH1 0x0 DUP3 DUP3 SLOAD PUSH2 0x83E SWAP2 SWAP1 PUSH2 0xE75 JUMP JUMPDEST SWAP1 SWAP2 SSTORE POP POP PUSH1 0x4 SLOAD PUSH1 0x7 SLOAD EQ DUP1 ISZERO PUSH2 0x859 JUMPI POP PUSH1 0x5 SLOAD PUSH1 0x8 SLOAD EQ JUMPDEST DUP1 ISZERO PUSH2 0x866 JUMPI POP DUP3 PUSH1 0x9 SLOAD EQ JUMPDEST ISZERO PUSH2 0x8A8 JUMPI PUSH1 0x2 DUP1 SLOAD PUSH2 0xFF00 NOT AND PUSH2 0x100 OR SWAP1 SSTORE PUSH1 0x40 MLOAD PUSH32 0xDDF0CABC180EEED2E5BF96EB969CBB08929A8CE2E66520183E54FE17A8E6A36E SWAP1 PUSH1 0x0 SWAP1 LOG1 PUSH2 0x8D4 JUMP JUMPDEST PUSH1 0x40 MLOAD CALLER SWAP1 PUSH32 0x20A3FE276908AF20D1FA2F8F48225AC6A1997EB2D38695C580ADEB4124A1A59B SWAP1 PUSH1 0x0 SWAP1 LOG2 JUMPDEST POP POP POP JUMP JUMPDEST PUSH1 0x2 SLOAD PUSH1 0xFF AND DUP2 JUMP JUMPDEST DUP1 ISZERO DUP1 ISZERO PUSH2 0x948 JUMPI PUSH1 0x2 DUP1 SLOAD SWAP1 PUSH2 0x100 EXP SWAP1 DIV PUSH1 0x1 PUSH1 0x1 PUSH1 0xA0 SHL SUB AND PUSH1 0x1 PUSH1 0x1 PUSH1 0xA0 SHL SUB AND PUSH2 0x8FC PUSH1 0x8 SLOAD PUSH1 0x7 SLOAD PUSH2 0x91A SWAP2 SWAP1 PUSH2 0xE75 JUMP JUMPDEST PUSH1 0x40 MLOAD DUP2 ISZERO SWAP1 SWAP3 MUL SWAP2 PUSH1 0x0 DUP2 DUP2 DUP2 DUP6 DUP9 DUP9 CALL SWAP4 POP POP POP POP ISZERO DUP1 ISZERO PUSH2 0x942 JUMPI RETURNDATASIZE PUSH1 0x0 DUP1 RETURNDATACOPY RETURNDATASIZE PUSH1 0x0 REVERT JUMPDEST POP PUSH2 0x994 JUMP JUMPDEST PUSH1 0x3 SLOAD PUSH1 0x8 SLOAD PUSH1 0x7 SLOAD PUSH1 0x1 PUSH1 0x1 PUSH1 0xA0 SHL SUB SWAP1 SWAP3 AND SWAP2 PUSH2 0x8FC SWAP2 PUSH2 0x96A SWAP2 PUSH2 0xE75 JUMP JUMPDEST PUSH1 0x40 MLOAD DUP2 ISZERO SWAP1 SWAP3 MUL SWAP2 PUSH1 0x0 DUP2 DUP2 DUP2 DUP6 DUP9 DUP9 CALL SWAP4 POP POP POP POP ISZERO DUP1 ISZERO PUSH2 0x992 JUMPI RETURNDATASIZE PUSH1 0x0 DUP1 RETURNDATACOPY RETURNDATASIZE PUSH1 0x0 REVERT JUMPDEST POP JUMPDEST PUSH1 0x2 DUP1 SLOAD PUSH2 0xFF00 NOT AND PUSH2 0x300 OR SWAP1 SSTORE DUP1 ISZERO PUSH2 0x9D9 JUMPI PUSH1 0x2 SLOAD PUSH1 0x40 MLOAD PUSH3 0x10000 SWAP1 SWAP2 DIV PUSH1 0x1 PUSH1 0x1 PUSH1 0xA0 SHL SUB AND SWAP1 PUSH1 0x0 DUP1 MLOAD PUSH1 0x20 PUSH2 0xF27 DUP4 CODECOPY DUP2 MLOAD SWAP2 MSTORE SWAP1 PUSH1 0x0 SWAP1 LOG2 PUSH2 0x8D4 JUMP JUMPDEST PUSH1 0x3 SLOAD PUSH1 0x40 MLOAD PUSH1 0x1 PUSH1 0x1 PUSH1 0xA0 SHL SUB SWAP1 SWAP2 AND SWAP1 PUSH1 0x0 DUP1 MLOAD PUSH1 0x20 PUSH2 0xF27 DUP4 CODECOPY DUP2 MLOAD SWAP2 MSTORE SWAP1 PUSH1 0x0 SWAP1 LOG2 POP POP POP JUMP JUMPDEST PUSH1 0x0 PUSH1 0x20 DUP1 DUP4 DUP6 SUB SLT ISZERO PUSH2 0xA16 JUMPI DUP2 DUP3 REVERT JUMPDEST DUP3 CALLDATALOAD PUSH1 0x1 PUSH1 0x1 PUSH1 0x40 SHL SUB DUP1 DUP3 GT ISZERO PUSH2 0xA2C JUMPI DUP4 DUP5 REVERT JUMPDEST DUP2 DUP6 ADD SWAP2 POP DUP6 PUSH1 0x1F DUP4 ADD SLT PUSH2 0xA3F JUMPI DUP4 DUP5 REVERT JUMPDEST DUP2 CALLDATALOAD DUP2 DUP2 GT ISZERO PUSH2 0xA51 JUMPI PUSH2 0xA51 PUSH2 0xEF0 JUMP JUMPDEST PUSH1 0x40 MLOAD PUSH1 0x1F DUP3 ADD PUSH1 0x1F NOT AND DUP2 ADD DUP6 ADD DUP4 DUP2 GT DUP3 DUP3 LT OR ISZERO PUSH2 0xA74 JUMPI PUSH2 0xA74 PUSH2 0xEF0 JUMP JUMPDEST PUSH1 0x40 MSTORE DUP2 DUP2 MSTORE DUP4 DUP3 ADD DUP6 ADD DUP9 LT ISZERO PUSH2 0xA8A JUMPI DUP6 DUP7 REVERT JUMPDEST DUP2 DUP6 DUP6 ADD DUP7 DUP4 ADD CALLDATACOPY SWAP1 DUP2 ADD SWAP1 SWAP4 ADD SWAP4 SWAP1 SWAP4 MSTORE POP SWAP4 SWAP3 POP POP POP JUMP JUMPDEST PUSH1 0x0 PUSH1 0x20 DUP3 DUP5 SUB SLT ISZERO PUSH2 0xAB5 JUMPI DUP1 DUP2 REVERT JUMPDEST POP MLOAD SWAP2 SWAP1 POP JUMP JUMPDEST PUSH1 0x0 DUP1 PUSH1 0x40 DUP4 DUP6 SUB SLT ISZERO PUSH2 0xACE JUMPI DUP1 DUP2 REVERT JUMPDEST POP POP DUP1 CALLDATALOAD SWAP3 PUSH1 0x20 SWAP1 SWAP2 ADD CALLDATALOAD SWAP2 POP JUMP JUMPDEST PUSH1 0x1 PUSH1 0x1 PUSH1 0xA0 SHL SUB SWAP2 SWAP1 SWAP2 AND DUP2 MSTORE PUSH1 0x20 ADD SWAP1 JUMP JUMPDEST PUSH1 0x20 DUP2 ADD PUSH1 0x4 DUP4 LT PUSH2 0xB05 JUMPI PUSH2 0xB05 PUSH2 0xEDA JUMP JUMPDEST SWAP2 SWAP1 MSTORE SWAP1 JUMP JUMPDEST PUSH1 0x20 DUP2 ADD PUSH1 0x5 DUP4 LT PUSH2 0xB05 JUMPI PUSH2 0xB05 PUSH2 0xEDA JUMP JUMPDEST PUSH1 0x0 PUSH1 0x20 DUP1 DUP4 MSTORE DUP4 MLOAD DUP1 DUP3 DUP6 ADD MSTORE DUP3 JUMPDEST DUP2 DUP2 LT ISZERO PUSH2 0xB4B JUMPI DUP6 DUP2 ADD DUP4 ADD MLOAD DUP6 DUP3 ADD PUSH1 0x40 ADD MSTORE DUP3 ADD PUSH2 0xB2F JUMP JUMPDEST DUP2 DUP2 GT ISZERO PUSH2 0xB5C JUMPI DUP4 PUSH1 0x40 DUP4 DUP8 ADD ADD MSTORE JUMPDEST POP PUSH1 0x1F ADD PUSH1 0x1F NOT AND SWAP3 SWAP1 SWAP3 ADD PUSH1 0x40 ADD SWAP4 SWAP3 POP POP POP JUMP JUMPDEST PUSH1 0x20 DUP1 DUP3 MSTORE PUSH1 0x3B SWAP1 DUP3 ADD MSTORE PUSH1 0x0 DUP1 MLOAD PUSH1 0x20 PUSH2 0xF07 DUP4 CODECOPY DUP2 MLOAD SWAP2 MSTORE PUSH1 0x40 DUP3 ADD MSTORE PUSH27 0x756E7420287072696365506172747942202B20666565202F203229 PUSH1 0x28 SHL PUSH1 0x60 DUP3 ADD MSTORE PUSH1 0x80 ADD SWAP1 JUMP JUMPDEST PUSH1 0x20 DUP1 DUP3 MSTORE PUSH1 0x3B SWAP1 DUP3 ADD MSTORE PUSH1 0x0 DUP1 MLOAD PUSH1 0x20 PUSH2 0xF07 DUP4 CODECOPY DUP2 MLOAD SWAP2 MSTORE PUSH1 0x40 DUP3 ADD MSTORE PUSH27 0x756E7420287072696365506172747941202B20666565202F203229 PUSH1 0x28 SHL PUSH1 0x60 DUP3 ADD MSTORE PUSH1 0x80 ADD SWAP1 JUMP JUMPDEST PUSH1 0x20 DUP1 DUP3 MSTORE PUSH1 0x1A SWAP1 DUP3 ADD MSTORE PUSH26 0x14DA5B5C1B1950995D0E8818995D081A5CC81C995CDBDB1D9959 PUSH1 0x32 SHL PUSH1 0x40 DUP3 ADD MSTORE PUSH1 0x60 ADD SWAP1 JUMP JUMPDEST PUSH1 0x20 DUP1 DUP3 MSTORE PUSH1 0x37 SWAP1 DUP3 ADD MSTORE PUSH32 0x41726269747261626C653A2074686572652073686F756C642062652064697370 PUSH1 0x40 DUP3 ADD MSTORE PUSH23 0x75746520746F206578656375746520612072756C696E67 PUSH1 0x48 SHL PUSH1 0x60 DUP3 ADD MSTORE PUSH1 0x80 ADD SWAP1 JUMP JUMPDEST PUSH1 0x20 DUP1 DUP3 MSTORE PUSH1 0x26 SWAP1 DUP3 ADD MSTORE PUSH32 0x53696D706C654265743A20626574206973206E6F7420696E20696E697469616C PUSH1 0x40 DUP3 ADD MSTORE PUSH6 0x207068617365 PUSH1 0xD0 SHL PUSH1 0x60 DUP3 ADD MSTORE PUSH1 0x80 ADD SWAP1 JUMP JUMPDEST PUSH1 0x20 DUP1 DUP3 MSTORE PUSH1 0x28 SWAP1 DUP3 ADD MSTORE PUSH32 0x53696D706C654265743A2063616C6C6572206973206E6F742070617274206F66 PUSH1 0x40 DUP3 ADD MSTORE PUSH8 0x81D1A194818995D PUSH1 0xC2 SHL PUSH1 0x60 DUP3 ADD MSTORE PUSH1 0x80 ADD SWAP1 JUMP JUMPDEST PUSH1 0x20 DUP1 DUP3 MSTORE PUSH1 0x25 SWAP1 DUP3 ADD MSTORE PUSH32 0x53696D706C654265743A20646561646C696E65206861736E2774207061737365 PUSH1 0x40 DUP3 ADD MSTORE PUSH5 0x19081E595D PUSH1 0xDA SHL PUSH1 0x60 DUP3 ADD MSTORE PUSH1 0x80 ADD SWAP1 JUMP JUMPDEST PUSH1 0x20 DUP1 DUP3 MSTORE DUP2 DUP2 ADD MSTORE PUSH32 0x41726269747261626C653A2072756C696E67206F7574206F6620626F756E6473 PUSH1 0x40 DUP3 ADD MSTORE PUSH1 0x60 ADD SWAP1 JUMP JUMPDEST PUSH1 0x20 DUP1 DUP3 MSTORE PUSH1 0x2E SWAP1 DUP3 ADD MSTORE PUSH32 0x53696D706C654265743A207061727469657320686176656E2774207061696420 PUSH1 0x40 DUP3 ADD MSTORE PUSH14 0x1D1A195A5C8818995D1CC81E595D PUSH1 0x92 SHL PUSH1 0x60 DUP3 ADD MSTORE PUSH1 0x80 ADD SWAP1 JUMP JUMPDEST PUSH1 0x20 DUP1 DUP3 MSTORE PUSH1 0x30 SWAP1 DUP3 ADD MSTORE PUSH32 0x41726269747261626C653A2063616E206F6E6C792062652063616C6C65642062 PUSH1 0x40 DUP3 ADD MSTORE PUSH16 0x3C903A34329030B93134BA3930BA37B9 PUSH1 0x81 SHL PUSH1 0x60 DUP3 ADD MSTORE PUSH1 0x80 ADD SWAP1 JUMP JUMPDEST PUSH1 0x20 DUP1 DUP3 MSTORE PUSH1 0x0 SWAP1 DUP3 ADD MSTORE PUSH1 0x40 ADD SWAP1 JUMP JUMPDEST SWAP1 DUP2 MSTORE PUSH1 0x20 ADD SWAP1 JUMP JUMPDEST SWAP1 DUP2 MSTORE PUSH1 0x40 PUSH1 0x20 DUP3 ADD DUP2 SWAP1 MSTORE PUSH1 0x0 SWAP1 DUP3 ADD MSTORE PUSH1 0x60 ADD SWAP1 JUMP JUMPDEST SWAP2 DUP3 MSTORE PUSH1 0x20 DUP3 ADD MSTORE PUSH1 0x40 ADD SWAP1 JUMP JUMPDEST PUSH1 0x0 DUP3 NOT DUP3 GT ISZERO PUSH2 0xE88 JUMPI PUSH2 0xE88 PUSH2 0xEC4 JUMP JUMPDEST POP ADD SWAP1 JUMP JUMPDEST PUSH1 0x0 DUP3 PUSH2 0xEA8 JUMPI PUSH4 0x4E487B71 PUSH1 0xE0 SHL DUP2 MSTORE PUSH1 0x12 PUSH1 0x4 MSTORE PUSH1 0x24 DUP2 REVERT JUMPDEST POP DIV SWAP1 JUMP JUMPDEST PUSH1 0x0 DUP3 DUP3 LT ISZERO PUSH2 0xEBF JUMPI PUSH2 0xEBF PUSH2 0xEC4 JUMP JUMPDEST POP SUB SWAP1 JUMP JUMPDEST PUSH4 0x4E487B71 PUSH1 0xE0 SHL PUSH1 0x0 MSTORE PUSH1 0x11 PUSH1 0x4 MSTORE PUSH1 0x24 PUSH1 0x0 REVERT JUMPDEST PUSH4 0x4E487B71 PUSH1 0xE0 SHL PUSH1 0x0 MSTORE PUSH1 0x21 PUSH1 0x4 MSTORE PUSH1 0x24 PUSH1 0x0 REVERT JUMPDEST PUSH4 0x4E487B71 PUSH1 0xE0 SHL PUSH1 0x0 MSTORE PUSH1 0x41 PUSH1 0x4 MSTORE PUSH1 0x24 PUSH1 0x0 REVERT INVALID MSTORE8 PUSH10 0x6D706C654265743A206D PUSH22 0x73742070617920726571756972656420616D6FA1026C 0xBE 0x28 PC EXTCODESIZE 0xB9 0xD4 SWAP16 0xA7 PUSH27 0x384DD9AE2610003B8B30E30BC20452C1E16A0A44A2646970667358 0x22 SLT KECCAK256 0x4D 0xB4 0xA9 SSTORE 0xE6 0xBE DUP12 0xDB DUP4 SDIV ADDMOD 0xC9 0x4D RETURNDATACOPY PUSH24 0xD57CC072ABA3B4335C3F1DEAC5D9DADBA464736F6C634300 ADDMOD STOP STOP CALLER "
        },
        "methodIdentifiers": {
          "arbitrationFeeDepositPeriod()": "345a47ea",
          "arbitrationStatus()": "f71e3e05",
          "arbitrator()": "6cc6cde1",
          "balanceArbitrationFee()": "0e718c79",
          "balancePartyA()": "69d5b466",
          "balancePartyB()": "c4b8f2b6",
          "createdAt()": "cf09e0d0",
          "deadline()": "29dcb0cf",
          "deposit()": "d0e30db0",
          "partyA()": "10e1d8ca",
          "partyB()": "29040113",
          "pricePartyA()": "47db7c79",
          "pricePartyB()": "c7959c18",
          "reclaimedAt()": "6b0aac71",
          "reclamationPeriod()": "762b8295",
          "resolveBet()": "8fced626",
          "rule(uint256,uint256)": "311a6c56",
          "status()": "200d2ed2",
          "submitEvidence(string)": "bac91e2e"
        }
      }
    }
  }
}