{
  "_format": "hh-sol-artifact-1",
  "contractName": "Arbitrator",
  "sourceName": "contracts/helpers/arbitration/Arbitrator.sol",
  "abi": [
    {
      "anonymous": false,
      "inputs": [
        {
          "indexed": true,
          "internalType": "uint256",
          "name": "_disputeID",
          "type": "uint256"
        },
        {
          "indexed": true,
          "internalType": "contract Arbitrable",
          "name": "_arbitrable",
          "type": "address"
        }
      ],
      "name": "AppealDecision",
      "type": "event"
    },
    {
      "anonymous": false,
      "inputs": [
        {
          "indexed": true,
          "internalType": "uint256",
          "name": "_disputeID",
          "type": "uint256"
        },
        {
          "indexed": true,
          "internalType": "contract Arbitrable",
          "name": "_arbitrable",
          "type": "address"
        }
      ],
      "name": "AppealPossible",
      "type": "event"
    },
    {
      "anonymous": false,
      "inputs": [
        {
          "indexed": true,
          "internalType": "uint256",
          "name": "_disputeID",
          "type": "uint256"
        },
        {
          "indexed": true,
          "internalType": "contract Arbitrable",
          "name": "_arbitrable",
          "type": "address"
        }
      ],
      "name": "DisputeCreation",
      "type": "event"
    },
    {
      "inputs": [
        {
          "internalType": "uint256",
          "name": "_disputeID",
          "type": "uint256"
        },
        {
          "internalType": "bytes",
          "name": "_extraData",
          "type": "bytes"
        }
      ],
      "name": "appeal",
      "outputs": [],
      "stateMutability": "payable",
      "type": "function"
    },
    {
      "inputs": [
        {
          "internalType": "uint256",
          "name": "_disputeID",
          "type": "uint256"
        },
        {
          "internalType": "bytes",
          "name": "_extraData",
          "type": "bytes"
        }
      ],
      "name": "appealCost",
      "outputs": [
        {
          "internalType": "uint256",
          "name": "fee",
          "type": "uint256"
        }
      ],
      "stateMutability": "view",
      "type": "function"
    },
    {
      "inputs": [
        {
          "internalType": "uint256",
          "name": "_disputeID",
          "type": "uint256"
        }
      ],
      "name": "appealPeriod",
      "outputs": [
        {
          "internalType": "uint256",
          "name": "start",
          "type": "uint256"
        },
        {
          "internalType": "uint256",
          "name": "end",
          "type": "uint256"
        }
      ],
      "stateMutability": "view",
      "type": "function"
    },
    {
      "inputs": [
        {
          "internalType": "bytes",
          "name": "_extraData",
          "type": "bytes"
        }
      ],
      "name": "arbitrationCost",
      "outputs": [
        {
          "internalType": "uint256",
          "name": "fee",
          "type": "uint256"
        }
      ],
      "stateMutability": "view",
      "type": "function"
    },
    {
      "inputs": [
        {
          "internalType": "uint256",
          "name": "_choices",
          "type": "uint256"
        },
        {
          "internalType": "bytes",
          "name": "_extraData",
          "type": "bytes"
        }
      ],
      "name": "createDispute",
      "outputs": [
        {
          "internalType": "uint256",
          "name": "disputeID",
          "type": "uint256"
        }
      ],
      "stateMutability": "payable",
      "type": "function"
    },
    {
      "inputs": [
        {
          "internalType": "uint256",
          "name": "_disputeID",
          "type": "uint256"
        }
      ],
      "name": "currentRuling",
      "outputs": [
        {
          "internalType": "uint256",
          "name": "ruling",
          "type": "uint256"
        }
      ],
      "stateMutability": "view",
      "type": "function"
    },
    {
      "inputs": [
        {
          "internalType": "uint256",
          "name": "_disputeID",
          "type": "uint256"
        }
      ],
      "name": "disputeStatus",
      "outputs": [
        {
          "internalType": "enum Arbitrator.DisputeStatus",
          "name": "status",
          "type": "uint8"
        }
      ],
      "stateMutability": "view",
      "type": "function"
    }
  ],
  "bytecode": "0x608060405234801561001057600080fd5b50610433806100206000396000f3fe6080604052600436106100605760003560e01c806310f169e8146100655780631c3db16d1461009b57806349912f88146100c3578063afe15cfb146100d8578063c13517e114610106578063f23f16e614610119578063f7434ea914610139575b600080fd5b34801561007157600080fd5b506100856100803660046102bd565b610154565b6040516100929190610319565b60405180910390f35b3480156100a757600080fd5b506100b66100803660046102bd565b60405161009291906103d0565b6100d66100d13660046102d5565b61015a565b005b3480156100e457600080fd5b506100f86100f33660046102bd565b6101c1565b6040516100929291906103d9565b6100b66101143660046102d5565b6101c9565b34801561012557600080fd5b506100b66101343660046102d5565b6101fb565b34801561014557600080fd5b506100b6610080366004610283565b50600090565b818161016682826101fb565b34101561018e5760405162461bcd60e51b815260040161018590610341565b60405180910390fd5b604051339085907f9c9b64db9e130f48381bf697abf638e73117dbfbfd7a4484f2da3ba188f4187d90600090a350505050565b600080915091565b6000816101d581610154565b3410156101f45760405162461bcd60e51b815260040161018590610386565b5092915050565b600092915050565b600082601f830112610213578081fd5b81356001600160401b038082111561022d5761022d6103e7565b604051601f8301601f191681016020018281118282101715610251576102516103e7565b604052828152848301602001861015610268578384fd5b82602086016020830137918201602001929092529392505050565b600060208284031215610294578081fd5b81356001600160401b038111156102a9578182fd5b6102b584828501610203565b949350505050565b6000602082840312156102ce578081fd5b5035919050565b600080604083850312156102e7578081fd5b8235915060208301356001600160401b03811115610303578182fd5b61030f85828601610203565b9150509250929050565b602081016003831061033b57634e487b7160e01b600052602160045260246000fd5b91905290565b60208082526025908201527f4e6f7420656e6f7567682045544820746f20636f7665722061707065616c206360408201526437b9ba399760d91b606082015260800190565b6020808252602a908201527f4e6f7420656e6f7567682045544820746f20636f76657220617262697472617460408201526934b7b71031b7b9ba399760b11b606082015260800190565b90815260200190565b918252602082015260400190565b634e487b7160e01b600052604160045260246000fdfea264697066735822122028d384c4a46dc211a1d3acd655d20846e3e685921003522483ec173aea3cd06464736f6c63430008000033",
  "linkReferences": {},
  "deployedLinkReferences": {}
}