{
  "_format": "hh-sol-artifact-1",
  "contractName": "Ethermancer",
  "sourceName": "contracts/Ethermancer.sol",
  "abi": [
    {
      "anonymous": false,
      "inputs": [
        {
          "indexed": false,
          "internalType": "string",
          "name": "contractName",
          "type": "string"
        },
        {
          "indexed": false,
          "internalType": "address",
          "name": "contractAddress",
          "type": "address"
        },
        {
          "indexed": false,
          "internalType": "address",
          "name": "creator",
          "type": "address"
        }
      ],
      "name": "ContractDeployed",
      "type": "event"
    },
    {
      "anonymous": false,
      "inputs": [
        {
          "indexed": true,
          "internalType": "address",
          "name": "previousOwner",
          "type": "address"
        },
        {
          "indexed": true,
          "internalType": "address",
          "name": "newOwner",
          "type": "address"
        }
      ],
      "name": "OwnershipTransferred",
      "type": "event"
    },
    {
      "inputs": [
        {
          "internalType": "address",
          "name": "partyA",
          "type": "address"
        },
        {
          "internalType": "address",
          "name": "partyB",
          "type": "address"
        },
        {
          "internalType": "uint256",
          "name": "pricePartyA",
          "type": "uint256"
        },
        {
          "internalType": "uint256",
          "name": "pricePartyB",
          "type": "uint256"
        },
        {
          "internalType": "uint256",
          "name": "deadline",
          "type": "uint256"
        },
        {
          "internalType": "string",
          "name": "metaEvidence",
          "type": "string"
        }
      ],
      "name": "deploySimpleBet",
      "outputs": [
        {
          "internalType": "address",
          "name": "",
          "type": "address"
        }
      ],
      "stateMutability": "payable",
      "type": "function"
    },
    {
      "inputs": [
        {
          "internalType": "address",
          "name": "buyer",
          "type": "address"
        },
        {
          "internalType": "address",
          "name": "seller",
          "type": "address"
        },
        {
          "internalType": "uint256",
          "name": "price",
          "type": "uint256"
        },
        {
          "internalType": "string",
          "name": "metaEvidence",
          "type": "string"
        }
      ],
      "name": "deploySimpleTrade",
      "outputs": [
        {
          "internalType": "address",
          "name": "",
          "type": "address"
        }
      ],
      "stateMutability": "payable",
      "type": "function"
    },
    {
      "inputs": [
        {
          "internalType": "address",
          "name": "user",
          "type": "address"
        }
      ],
      "name": "getDeployedContracts",
      "outputs": [
        {
          "internalType": "contract Deployable[]",
          "name": "",
          "type": "address[]"
        }
      ],
      "stateMutability": "view",
      "type": "function"
    },
    {
      "inputs": [],
      "name": "owner",
      "outputs": [
        {
          "internalType": "address",
          "name": "",
          "type": "address"
        }
      ],
      "stateMutability": "view",
      "type": "function"
    },
    {
      "inputs": [],
      "name": "renounceOwnership",
      "outputs": [],
      "stateMutability": "nonpayable",
      "type": "function"
    },
    {
      "inputs": [],
      "name": "simpleBetFee",
      "outputs": [
        {
          "internalType": "uint256",
          "name": "",
          "type": "uint256"
        }
      ],
      "stateMutability": "view",
      "type": "function"
    },
    {
      "inputs": [],
      "name": "simpleTradeFee",
      "outputs": [
        {
          "internalType": "uint256",
          "name": "",
          "type": "uint256"
        }
      ],
      "stateMutability": "view",
      "type": "function"
    },
    {
      "inputs": [
        {
          "internalType": "address",
          "name": "newOwner",
          "type": "address"
        }
      ],
      "name": "transferOwnership",
      "outputs": [],
      "stateMutability": "nonpayable",
      "type": "function"
    },
    {
      "inputs": [
        {
          "internalType": "uint256",
          "name": "fee",
          "type": "uint256"
        }
      ],
      "name": "updateSimpleBetFee",
      "outputs": [],
      "stateMutability": "nonpayable",
      "type": "function"
    },
    {
      "inputs": [
        {
          "internalType": "uint256",
          "name": "fee",
          "type": "uint256"
        }
      ],
      "name": "updateSimpleTradeFee",
      "outputs": [],
      "stateMutability": "nonpayable",
      "type": "function"
    }
  ],
  "bytecode": "0x6080604052633b9aca00600155633b9aca0060025534801561002057600080fd5b50600061002b61007a565b600080546001600160a01b0319166001600160a01b0383169081178255604051929350917f8be0079c531659141344cd1fd0a4f28419497f9722a3daafe3b4186f6b6457e0908290a35061007e565b3390565b61386b8061008d6000396000f3fe6080604052600436106200008c5760003560e01c80630de99314146200009157806311f0a22514620000c05780633828d8ea14620000e757806355cf1c90146200010e57806370411d121462000125578063715018a614620001595780638da5cb5b1462000171578063cd0370861462000189578063ddc4caa214620001a1578063f2fde38b14620001c6575b600080fd5b620000a8620000a23660046200097a565b620001eb565b604051620000b7919062000ae8565b60405180910390f35b348015620000cd57600080fd5b50620000d862000345565b604051620000b7919062000cdb565b348015620000f457600080fd5b506200010c62000106366004620009f9565b6200034b565b005b620000a86200011f3660046200090d565b62000396565b3480156200013257600080fd5b506200014a62000144366004620008e9565b620004e1565b604051620000b7919062000b86565b3480156200016657600080fd5b506200010c6200055a565b3480156200017e57600080fd5b50620000a8620005d9565b3480156200019657600080fd5b50620000d8620005e8565b348015620001ae57600080fd5b506200010c620001c0366004620009f9565b620005ee565b348015620001d357600080fd5b506200010c620001e5366004620008e9565b62000639565b600060025434101562000200600254620006f2565b60405160200162000212919062000a40565b604051602081830303815290604052906200024b5760405162461bcd60e51b815260040162000242919062000bd5565b60405180910390fd5b50600087878787878760405162000262906200082d565b620002739695949392919062000b3b565b604051809103906000f08015801562000290573d6000803e3d6000fd5b503360008181526003602090815260408083208054600181018255908452919092200180546001600160a01b0319166001600160a01b038516179055519192506000805160206200381683398151915291620002ee91849162000c30565b60405180910390a162000300620005d9565b6001600160a01b03166108fc349081150290604051600060405180830381858888f1935050505015801562000339573d6000803e3d6000fd5b50979650505050505050565b60015481565b6200035562000829565b6001600160a01b031662000368620005d9565b6001600160a01b031614620003915760405162461bcd60e51b8152600401620002429062000ca6565b600255565b6000600154341015620003ab600154620006f2565b604051602001620003bd919062000a93565b60405160208183030381529060405290620003ed5760405162461bcd60e51b815260040162000242919062000bd5565b5060008585858560405162000402906200083b565b62000411949392919062000afc565b604051809103906000f0801580156200042e573d6000803e3d6000fd5b503360008181526003602090815260408083208054600181018255908452919092200180546001600160a01b0319166001600160a01b0385161790555191925060008051602062003816833981519152916200048c91849162000c6a565b60405180910390a16200049e620005d9565b6001600160a01b03166108fc349081150290604051600060405180830381858888f19350505050158015620004d7573d6000803e3d6000fd5b5095945050505050565b6001600160a01b0381166000908152600360209081526040918290208054835181840281018401909452808452606093928301828280156200054d57602002820191906000526020600020905b81546001600160a01b031681526001909101906020018083116200052e575b505050505090505b919050565b6200056462000829565b6001600160a01b031662000577620005d9565b6001600160a01b031614620005a05760405162461bcd60e51b8152600401620002429062000ca6565b600080546040516001600160a01b0390911690600080516020620037f6833981519152908390a3600080546001600160a01b0319169055565b6000546001600160a01b031690565b60025481565b620005f862000829565b6001600160a01b03166200060b620005d9565b6001600160a01b031614620006345760405162461bcd60e51b8152600401620002429062000ca6565b600155565b6200064362000829565b6001600160a01b031662000656620005d9565b6001600160a01b0316146200067f5760405162461bcd60e51b8152600401620002429062000ca6565b6001600160a01b038116620006a85760405162461bcd60e51b8152600401620002429062000bea565b600080546040516001600160a01b0380851693921691600080516020620037f683398151915291a3600080546001600160a01b0319166001600160a01b0392909216919091179055565b6060816200071957506040805180820190915260018152600360fc1b602082015262000555565b8160005b8115620007495780620007308162000d63565b9150620007419050600a8362000cff565b91506200071d565b6000816001600160401b038111156200077257634e487b7160e01b600052604160045260246000fd5b6040519080825280601f01601f1916602001820160405280156200079d576020820181803683370190505b5090505b84156200082157620007b560018362000d16565b9150620007c4600a8662000d81565b620007d190603062000ce4565b60f81b818381518110620007f557634e487b7160e01b600052603260045260246000fd5b60200101906001600160f81b031916908160001a90535062000819600a8662000cff565b9450620007a1565b949350505050565b3390565b6112268062000ddb83390190565b6117f5806200200183390190565b80356001600160a01b03811681146200055557600080fd5b600082601f83011262000872578081fd5b81356001600160401b03808211156200088f576200088f62000dc4565b604051601f8301601f191681016020018281118282101715620008b657620008b662000dc4565b604052828152848301602001861015620008ce578384fd5b82602086016020830137918201602001929092529392505050565b600060208284031215620008fb578081fd5b620009068262000849565b9392505050565b6000806000806080858703121562000923578283fd5b6200092e8562000849565b93506200093e6020860162000849565b92506040850135915060608501356001600160401b0381111562000960578182fd5b6200096e8782880162000861565b91505092959194509250565b60008060008060008060c0878903121562000993578182fd5b6200099e8762000849565b9550620009ae6020880162000849565b945060408701359350606087013592506080870135915060a08701356001600160401b03811115620009de578182fd5b620009ec89828a0162000861565b9150509295509295509295565b60006020828403121562000a0b578081fd5b5035919050565b6000815180845262000a2c81602086016020860162000d30565b601f01601f19169290920160200192915050565b60006d29b4b6b83632a132ba103332b29d60911b8252600160fd1b80600e840152835162000a7681600f86016020880162000d30565b600f930192830152506277656960e81b6010820152601301919050565b60006f29b4b6b83632aa3930b232903332b29d60811b8252600160fd1b806010840152835162000acb81601186016020880162000d30565b6011930192830152506277656960e81b6012820152601501919050565b6001600160a01b0391909116815260200190565b6001600160a01b038581168252841660208201526040810183905260806060820181905260009062000b319083018462000a12565b9695505050505050565b600060018060a01b03808916835280881660208401525085604083015284606083015283608083015260c060a083015262000b7a60c083018462000a12565b98975050505050505050565b6020808252825182820181905260009190848201906040850190845b8181101562000bc95783516001600160a01b03168352928401929184019160010162000ba2565b50909695505050505050565b60006020825262000906602083018462000a12565b60208082526026908201527f4f776e61626c653a206e6577206f776e657220697320746865207a65726f206160408201526564647265737360d01b606082015260800190565b60608082526009908201526814da5b5c1b1950995d60ba1b60808201526001600160a01b0392831660208201529116604082015260a00190565b6060808252600b908201526a53696d706c65547261646560a81b60808201526001600160a01b0392831660208201529116604082015260a00190565b6020808252818101527f4f776e61626c653a2063616c6c6572206973206e6f7420746865206f776e6572604082015260600190565b90815260200190565b6000821982111562000cfa5762000cfa62000d98565b500190565b60008262000d115762000d1162000dae565b500490565b60008282101562000d2b5762000d2b62000d98565b500390565b60005b8381101562000d4d57818101518382015260200162000d33565b8381111562000d5d576000848401525b50505050565b600060001982141562000d7a5762000d7a62000d98565b5060010190565b60008262000d935762000d9362000dae565b500690565b634e487b7160e01b600052601160045260246000fd5b634e487b7160e01b600052601260045260246000fd5b634e487b7160e01b600052604160045260246000fdfe60806040523480156200001157600080fd5b506040516200122638038062001226833981016040819052620000349162000129565b600080546001600160a01b031916735badcee6a4e3dc11e6441400982676b799e1f51490811782556002805460ff19169055604051909183917f61606860eb6c87306811e2695215385101daab53bd6ab4e9f9049aead9363c7d906200009c9084906200021c565b60405180910390a2505060028054600380546001600160a01b0319166001600160a01b03988916179055600495909555600593909355506006556000600781905560085562010000600160b01b03199091166201000093909216929092021761ff001916905542600a556200029a565b80516001600160a01b03811681146200012457600080fd5b919050565b60008060008060008060c0878903121562000142578182fd5b6200014d876200010c565b95506200015d602088016200010c565b6040880151606089015160808a015160a08b0151939850919650945092506001600160401b038082111562000190578283fd5b818901915089601f830112620001a4578283fd5b815181811115620001b957620001b962000284565b604051601f8201601f191681016020018381118282101715620001e057620001e062000284565b6040528181528382016020018c1015620001f8578485fd5b6200020b82602083016020870162000251565b809450505050509295509295509295565b60006020825282518060208401526200023d81604085016020870162000251565b601f01601f19169190910160400192915050565b60005b838110156200026e57818101518382015260200162000254565b838111156200027e576000848401525b50505050565b634e487b7160e01b600052604160045260246000fd5b610f7c80620002aa6000396000f3fe6080604052600436106100e45760003560e01c80630e718c79146100e957806310e1d8ca14610114578063200d2ed214610136578063290401131461015857806329dcb0cf1461016d578063311a6c5614610182578063345a47ea146101a457806347db7c79146101b957806369d5b466146101ce5780636b0aac71146101e35780636cc6cde1146101f8578063762b8295146101a45780638fced6261461020d578063bac91e2e14610222578063c4b8f2b614610242578063c7959c1814610257578063cf09e0d01461026c578063d0e30db014610281578063f71e3e0514610289575b600080fd5b3480156100f557600080fd5b506100fe6102ab565b60405161010b9190610e46565b60405180910390f35b34801561012057600080fd5b506101296102b1565b60405161010b9190610add565b34801561014257600080fd5b5061014b6102c6565b60405161010b9190610b0b565b34801561016457600080fd5b506101296102d4565b34801561017957600080fd5b506100fe6102e3565b34801561018e57600080fd5b506101a261019d366004610abc565b6102e9565b005b3480156101b057600080fd5b506100fe6103d7565b3480156101c557600080fd5b506100fe6103de565b3480156101da57600080fd5b506100fe6103e4565b3480156101ef57600080fd5b506100fe6103ea565b34801561020457600080fd5b506101296103f0565b34801561021957600080fd5b506101a26103ff565b34801561022e57600080fd5b506101a261023d366004610a04565b610587565b34801561024e57600080fd5b506100fe61065d565b34801561026357600080fd5b506100fe610663565b34801561027857600080fd5b506100fe610669565b6101a261066f565b34801561029557600080fd5b5061029e6108d9565b60405161010b9190610af1565b60095481565b6002546201000090046001600160a01b031681565b600254610100900460ff1681565b6003546001600160a01b031681565b60065481565b6000546001600160a01b0316331461031c5760405162461bcd60e51b815260040161031390610de5565b60405180910390fd5b6002805460ff16600381111561034257634e487b7160e01b600052602160045260246000fd5b1461035f5760405162461bcd60e51b815260040161031390610c38565b60028111156103805760405162461bcd60e51b815260040161031390610d62565b6002805460ff19166003179055604051829033907f394027a5fa6e098a1191094d1719d6929b9abc535fcc0c8f448d6a4e75622276906103c1908590610e46565b60405180910390a36103d382826108e2565b5050565b6203f48081565b60045481565b60075481565b60015481565b6000546001600160a01b031681565b6001600254610100900460ff16600481111561042b57634e487b7160e01b600052602160045260246000fd5b146104485760405162461bcd60e51b815260040161031390610d97565b60065442101561046a5760405162461bcd60e51b815260040161031390610d1d565b6000805460095460405163c13517e160e01b81526001600160a01b039092169163c13517e191906104a090600290600401610e4f565b6020604051808303818588803b1580156104b957600080fd5b505af11580156104cd573d6000803e3d6000fd5b50505050506040513d601f19601f820116820180604052508101906104f29190610aa4565b6002805460ff1916811790556000805460405192935083926001600160a01b03909116917f74baab670a4015ab2f1b467c5252a96141a2573f2908e58a92081e80d3cfde3d9161054491908190610e67565b60405180910390a36002805461ff0019166102001790556040517f4efaad0fe56106633f98cf9f45aa4e33100c3b7e4744abeb046bb1f494764ce090600090a150565b6002546201000090046001600160a01b03163314806105b057506003546001600160a01b031633145b6105cc5760405162461bcd60e51b815260040161031390610cd5565b600360025460ff1660038111156105f357634e487b7160e01b600052602160045260246000fd5b14156106115760405162461bcd60e51b815260040161031390610c04565b600080546040513392916001600160a01b0316907fdccf2f8b2cc26eafcd61905cba744cff4b81d14740725f6376390dc6298a6a3c90610652908690610b1f565b60405180910390a450565b60085481565b60055481565b600a5481565b6002546201000090046001600160a01b031633148061069857506003546001600160a01b031633145b6106b45760405162461bcd60e51b815260040161031390610cd5565b6000600254610100900460ff1660048111156106e057634e487b7160e01b600052602160045260246000fd5b146106fd5760405162461bcd60e51b815260040161031390610c8f565b6000805460405163f7434ea960e01b81526001600160a01b039091169063f7434ea99061072c90600401610e35565b60206040518083038186803b15801561074457600080fd5b505afa158015610758573d6000803e3d6000fd5b505050506040513d601f19601f8201168201806040525081019061077c9190610aa4565b9050600061078b600283610e8d565b905060006107998234610ead565b6002549091506201000090046001600160a01b03163314156107f35760045481146107d65760405162461bcd60e51b815260040161031390610bbb565b80600760008282546107e89190610e75565b9091555061082c9050565b60055481146108145760405162461bcd60e51b815260040161031390610b72565b80600860008282546108269190610e75565b90915550505b816009600082825461083e9190610e75565b90915550506004546007541480156108595750600554600854145b8015610866575082600954145b156108a8576002805461ff0019166101001790556040517fddf0cabc180eeed2e5bf96eb969cbb08929a8ce2e66520183e54fe17a8e6a36e90600090a16108d4565b60405133907f20a3fe276908af20d1fa2f8f48225ac6a1997eb2d38695c580adeb4124a1a59b90600090a25b505050565b60025460ff1681565b801580156109485760028054906101000a90046001600160a01b03166001600160a01b03166108fc60085460075461091a9190610e75565b6040518115909202916000818181858888f19350505050158015610942573d6000803e3d6000fd5b50610994565b6003546008546007546001600160a01b03909216916108fc9161096a91610e75565b6040518115909202916000818181858888f19350505050158015610992573d6000803e3d6000fd5b505b6002805461ff00191661030017905580156109d957600254604051620100009091046001600160a01b031690600080516020610f2783398151915290600090a26108d4565b6003546040516001600160a01b0390911690600080516020610f2783398151915290600090a2505050565b60006020808385031215610a16578182fd5b82356001600160401b0380821115610a2c578384fd5b818501915085601f830112610a3f578384fd5b813581811115610a5157610a51610ef0565b604051601f8201601f1916810185018381118282101715610a7457610a74610ef0565b6040528181528382018501881015610a8a578586fd5b818585018683013790810190930193909352509392505050565b600060208284031215610ab5578081fd5b5051919050565b60008060408385031215610ace578081fd5b50508035926020909101359150565b6001600160a01b0391909116815260200190565b6020810160048310610b0557610b05610eda565b91905290565b6020810160058310610b0557610b05610eda565b6000602080835283518082850152825b81811015610b4b57858101830151858201604001528201610b2f565b81811115610b5c5783604083870101525b50601f01601f1916929092016040019392505050565b6020808252603b90820152600080516020610f0783398151915260408201527a756e7420287072696365506172747942202b20666565202f20322960281b606082015260800190565b6020808252603b90820152600080516020610f0783398151915260408201527a756e7420287072696365506172747941202b20666565202f20322960281b606082015260800190565b6020808252601a908201527914da5b5c1b1950995d0e8818995d081a5cc81c995cdbdb1d995960321b604082015260600190565b60208082526037908201527f41726269747261626c653a2074686572652073686f756c64206265206469737060408201527675746520746f206578656375746520612072756c696e6760481b606082015260800190565b60208082526026908201527f53696d706c654265743a20626574206973206e6f7420696e20696e697469616c60408201526520706861736560d01b606082015260800190565b60208082526028908201527f53696d706c654265743a2063616c6c6572206973206e6f742070617274206f66604082015267081d1a194818995d60c21b606082015260800190565b60208082526025908201527f53696d706c654265743a20646561646c696e65206861736e277420706173736560408201526419081e595d60da1b606082015260800190565b6020808252818101527f41726269747261626c653a2072756c696e67206f7574206f6620626f756e6473604082015260600190565b6020808252602e908201527f53696d706c654265743a207061727469657320686176656e277420706169642060408201526d1d1a195a5c8818995d1cc81e595d60921b606082015260800190565b60208082526030908201527f41726269747261626c653a2063616e206f6e6c792062652063616c6c6564206260408201526f3c903a34329030b93134ba3930ba37b960811b606082015260800190565b602080825260009082015260400190565b90815260200190565b90815260406020820181905260009082015260600190565b918252602082015260400190565b60008219821115610e8857610e88610ec4565b500190565b600082610ea857634e487b7160e01b81526012600452602481fd5b500490565b600082821015610ebf57610ebf610ec4565b500390565b634e487b7160e01b600052601160045260246000fd5b634e487b7160e01b600052602160045260246000fd5b634e487b7160e01b600052604160045260246000fdfe53696d706c654265743a206d7573742070617920726571756972656420616d6fa1026cbe28583bb9d49fa77a384dd9ae2610003b8b30e30bc20452c1e16a0a44a26469706673582212204db4a955e6be8bdb830508c94d3e77d57cc072aba3b4335c3f1deac5d9dadba464736f6c6343000800003360806040523480156200001157600080fd5b50604051620017f5380380620017f583398101604081905262000034916200010a565b600080546001600160a01b03199081166001600160a01b0387811691909117835560018054831691871691909117905560028054735badcee6a4e3dc11e6441400982676b799e1f5149216821790556004805460ff19169055604051909183917f61606860eb6c87306811e2695215385101daab53bd6ab4e9f9049aead9363c7d90620000c3908490620001e8565b60405180910390a2505050600555505060006006556004805461ff00191690554260075562000266565b80516001600160a01b03811681146200010557600080fd5b919050565b6000806000806080858703121562000120578384fd5b6200012b85620000ed565b93506200013b60208601620000ed565b6040860151606087015191945092506001600160401b03808211156200015f578283fd5b818701915087601f83011262000173578283fd5b81518181111562000188576200018862000250565b604051601f8201601f191681016020018381118282101715620001af57620001af62000250565b6040528181528382016020018a1015620001c7578485fd5b620001da8260208301602087016200021d565b969995985093965050505050565b6000602082528251806020840152620002098160408501602087016200021d565b601f01601f19169190910160400192915050565b60005b838110156200023a57818101518382015260200162000220565b838111156200024a576000848401525b50505050565b634e487b7160e01b600052604160045260246000fd5b61157f80620002766000396000f3fe6080604052600436106100ef5760003560e01c806308551a53146100f45780631ca107991461011f578063200d2ed214610141578063311a6c5614610163578063345a47ea146101855780635bcb2fc61461019a5780636b0aac71146101af5780636cc6cde1146101c45780637022b58e146101d95780637150d8ae146101ee578063762b82951461018557806380e9071b14610203578063a035b1fe1461020b578063b69ef8a814610220578063bac91e2e14610235578063cac2c83714610255578063cf09e0d01461025d578063d0e30db014610272578063ea8a1af01461027a578063f71e3e051461028f575b600080fd5b34801561010057600080fd5b506101096102b1565b6040516101169190610eb2565b60405180910390f35b34801561012b57600080fd5b506101346102c0565b6040516101169190611449565b34801561014d57600080fd5b506101566102c6565b6040516101169190610ee0565b34801561016f57600080fd5b5061018361017e366004610e91565b6102d4565b005b34801561019157600080fd5b506101346103c3565b3480156101a657600080fd5b506101836103ca565b3480156101bb57600080fd5b5061013461047b565b3480156101d057600080fd5b50610109610481565b3480156101e557600080fd5b50610183610490565b3480156101fa57600080fd5b5061010961053d565b61018361054c565b34801561021757600080fd5b5061013461078f565b34801561022c57600080fd5b50610134610795565b34801561024157600080fd5b50610183610250366004610dd9565b61079b565b61018361086e565b34801561026957600080fd5b50610134610a5e565b610183610a64565b34801561028657600080fd5b50610183610b29565b34801561029b57600080fd5b506102a4610c59565b6040516101169190610ec6565b6001546001600160a01b031681565b60085481565b600454610100900460ff1681565b6002546001600160a01b031633146103075760405162461bcd60e51b81526004016102fe90611111565b60405180910390fd5b600260045460ff16600381111561032e57634e487b7160e01b600052602160045260246000fd5b1461034b5760405162461bcd60e51b81526004016102fe90610ffb565b600281111561036c5760405162461bcd60e51b81526004016102fe906110dc565b6004805460ff19166003179055604051829033907f394027a5fa6e098a1191094d1719d6929b9abc535fcc0c8f448d6a4e75622276906103ad908590611449565b60405180910390a36103bf8282610c62565b5050565b6203f48081565b6001546001600160a01b031633146103f45760405162461bcd60e51b81526004016102fe906112f1565b600160048054610100900460ff169081111561042057634e487b7160e01b600052602160045260246000fd5b1461043d5760405162461bcd60e51b81526004016102fe906113fb565b426008556004805461ff0019166102001790556040517fb19cc2acddd38e823dda4f74da35ed6226d707760fa5b982a1aa5215fc89445890600090a1565b60035481565b6002546001600160a01b031681565b6000546001600160a01b031633146104ba5760405162461bcd60e51b81526004016102fe90611334565b600260048054610100900460ff16908111156104e657634e487b7160e01b600052602160045260246000fd5b1480156105175750600060045460ff16600381111561051557634e487b7160e01b600052602160045260246000fd5b145b6105335760405162461bcd60e51b81526004016102fe906113af565b61053b610c7c565b565b6000546001600160a01b031681565b6000546001600160a01b031633146105765760405162461bcd60e51b81526004016102fe90611334565b600260048054610100900460ff16908111156105a257634e487b7160e01b600052602160045260246000fd5b146105bf5760405162461bcd60e51b81526004016102fe906113af565b600060045460ff1660038111156105e657634e487b7160e01b600052602160045260246000fd5b14806106165750600160045460ff16600381111561061457634e487b7160e01b600052602160045260246000fd5b145b6106325760405162461bcd60e51b81526004016102fe90610f47565b6203f480600854426106449190611490565b11156106625760405162461bcd60e51b81526004016102fe9061120f565b600060045460ff16600381111561068957634e487b7160e01b600052602160045260246000fd5b14156107585760025460405163f7434ea960e01b81526001600160a01b039091169063f7434ea9906106bd90600401611364565b60206040518083038186803b1580156106d557600080fd5b505afa1580156106e9573d6000803e3d6000fd5b505050506040513d601f19601f8201168201806040525081019061070d9190610e79565b341461072b5760405162461bcd60e51b81526004016102fe90611294565b346006600082825461073d9190611478565b9091555050426003556004805460ff1916600117905561053b565b6203f4806003544261076a9190611490565b116107875760405162461bcd60e51b81526004016102fe90611161565b61053b610d2b565b60055481565b60065481565b6000546001600160a01b03163314806107be57506001546001600160a01b031633145b6107da5760405162461bcd60e51b81526004016102fe90611375565b600360045460ff16600381111561080157634e487b7160e01b600052602160045260246000fd5b141561081f5760405162461bcd60e51b81526004016102fe90611052565b60025460405133916000916001600160a01b03909116907fdccf2f8b2cc26eafcd61905cba744cff4b81d14740725f6376390dc6298a6a3c90610863908690610ef4565b60405180910390a450565b6001546001600160a01b031633146108985760405162461bcd60e51b81526004016102fe906112f1565b600160045460ff1660038111156108bf57634e487b7160e01b600052602160045260246000fd5b146108dc5760405162461bcd60e51b81526004016102fe90611254565b60025460405163f7434ea960e01b81526001600160a01b039091169063f7434ea99061090a90600401611364565b60206040518083038186803b15801561092257600080fd5b505afa158015610936573d6000803e3d6000fd5b505050506040513d601f19601f8201168201806040525081019061095a9190610e79565b34146109785760405162461bcd60e51b81526004016102fe90610f92565b6002805460405163c13517e160e01b81526000926001600160a01b039092169163c13517e19134916109ac91600401611452565b6020604051808303818588803b1580156109c557600080fd5b505af11580156109d9573d6000803e3d6000fd5b50505050506040513d601f19601f820116820180604052508101906109fe9190610e79565b6004805460ff191660029081179091555460405191925082916001600160a01b03909116907f74baab670a4015ab2f1b467c5252a96141a2573f2908e58a92081e80d3cfde3d90610a5390600090819061146a565b60405180910390a350565b60075481565b6000546001600160a01b03163314610a8e5760405162461bcd60e51b81526004016102fe90611334565b60003490508060066000828254610aa59190611478565b90915550506040517f2a89b2e3d580398d6dc2db5e0f336b52602bbaa51afa9bb5cdf59239cf0d2bea90610ada908390611449565b60405180910390a160055460065410610b26576004805461ff0019166101001790556040517f59f10b73e5d5e52cd6c3c92c5e7c118123db093f760ef7594dea33087a1bfe9290600090a15b50565b6000546001600160a01b0316331480610b4c57506001546001600160a01b031633145b610b685760405162461bcd60e51b81526004016102fe90611375565b600060048054610100900460ff1690811115610b9457634e487b7160e01b600052602160045260246000fd5b1480610bc95750600160048054610100900460ff1690811115610bc757634e487b7160e01b600052602160045260246000fd5b145b610be55760405162461bcd60e51b81526004016102fe90611089565b6001546001600160a01b0316331480610c3d57506000546001600160a01b031633148015610c3d5750600160048054610100900460ff1690811115610c3a57634e487b7160e01b600052602160045260246000fd5b14155b6107875760405162461bcd60e51b81526004016102fe906111b8565b60045460ff1681565b6001811415610c7857610c73610d2b565b6103bf565b6103bf5b6001546006546040516001600160a01b039092169181156108fc0291906000818181858888f19350505050158015610cb8573d6000803e3d6000fd5b506001546006546040516001600160a01b039092169160008051602061152a83398151915291610ce791611449565b60405180910390a26004805461ff00191661030017905560405133907fa1026cbe28583bb9d49fa77a384dd9ae2610003b8b30e30bc20452c1e16a0a4490600090a2565b600080546006546040516001600160a01b039092169281156108fc029290818181858888f19350505050158015610d66573d6000803e3d6000fd5b506000546006546040516001600160a01b039092169160008051602061152a83398151915291610d9591611449565b60405180910390a26004805461ff00191661040017905560405133907f398bd6b21ae4164ec322fb0eb8c2eb6277f36fd41903fbbed594dfe12559128190600090a2565b60006020808385031215610deb578182fd5b82356001600160401b0380821115610e01578384fd5b818501915085601f830112610e14578384fd5b813581811115610e2657610e266114d3565b604051601f8201601f1916810185018381118282101715610e4957610e496114d3565b6040528181528382018501881015610e5f578586fd5b818585018683013790810190930193909352509392505050565b600060208284031215610e8a578081fd5b5051919050565b60008060408385031215610ea3578081fd5b50508035926020909101359150565b6001600160a01b0391909116815260200190565b6020810160048310610eda57610eda6114bd565b91905290565b6020810160058310610eda57610eda6114bd565b6000602080835283518082850152825b81811015610f2057858101830151858201604001528201610f04565b81811115610f315783604083870101525b50601f01601f1916929092016040019392505050565b6020808252603d908201526000805160206114ea83398151915260408201527f696e20696e697469616c206f72207265636c61696d6564207374617465000000606082015260800190565b60208082526043908201527f53696d706c6554726164653a2063616e2774206368616c6c656e67652072656360408201527f6c61696d20776974686f757420706179696e67206172626974726174696f6e2060608201526266656560e81b608082015260a00190565b60208082526037908201527f41726269747261626c653a2074686572652073686f756c64206265206469737060408201527675746520746f206578656375746520612072756c696e6760481b606082015260800190565b6020808252601e908201527f53696d706c6554726164653a207472616465206973207265736f6c7665640000604082015260600190565b60208082526033908201527f53696d706c6554726164653a2063616e27742063616e63656c207472616465206040820152721bdb98d9481a5d09dcc81cdd589b5a5d1d1959606a1b606082015260800190565b6020808252818101527f41726269747261626c653a2072756c696e67206f7574206f6620626f756e6473604082015260600190565b60208082526030908201527f41726269747261626c653a2063616e206f6e6c792062652063616c6c6564206260408201526f3c903a34329030b93134ba3930ba37b960811b606082015260800190565b60208082526037908201527f53696d706c6554726164653a2073656c6c6572207374696c6c206861732074696040820152766d6520746f206368616c6c656e6765207265636c61696d60481b606082015260800190565b60208082526037908201527f53696d706c6554726164653a2063616e27742063616e63656c206f6e636520666040820152761d5b1b081c1c9a58d9481a185cc81899595b881c185a59604a1b606082015260800190565b60208082526025908201527f53696d706c6554726164653a207265636c616d6174696f6e20706572696f6420604082015264195b99195960da1b606082015260800190565b60208082526032908201526000805160206114ea833981519152604082015271696e207265636c61696d656420737461746560701b606082015260800190565b6020808252603d908201527f53696d706c6554726164653a2063616e2774207265636c61696d20776974686f60408201527f7574206465706f736974696e67206172626974726174696f6e20666565000000606082015260800190565b60208082526023908201527f4261736554726164653a2063616c6c6572206973206e6f74207468652073656c6040820152623632b960e91b606082015260800190565b602080825260229082015260008051602061150a83398151915260408201526132b960f11b606082015260800190565b602080825260009082015260400190565b6020808252602c9082015260008051602061150a83398151915260408201526b32b91037b91039b2b63632b960a11b606082015260800190565b6020808252602c908201527f53696d706c6554726164653a207472616465206973206e6f7420696e2073756260408201526b6d697474656420737461746560a01b606082015260800190565b6020808252602e908201527f53696d706c6554726164653a20747261646520707269636520686173206e6f7460408201526d081899595b881c185a59081e595d60921b606082015260800190565b90815260200190565b90815260406020820181905260009082015260600190565b918252602082015260400190565b6000821982111561148b5761148b6114a7565b500190565b6000828210156114a2576114a26114a7565b500390565b634e487b7160e01b600052601160045260246000fd5b634e487b7160e01b600052602160045260246000fd5b634e487b7160e01b600052604160045260246000fdfe53696d706c6554726164653a206172626974726174696f6e206973206e6f74204261736554726164653a2063616c6c6572206973206e6f7420746865206275797084f5476618d8e60b11ef0d7d3f06914655adb8793e28ff7f018d4c76d505d5a264697066735822122050ddf60ee4c866b324e551e78a42041229eb10cbb5149a861608471098c8c93c64736f6c634300080000338be0079c531659141344cd1fd0a4f28419497f9722a3daafe3b4186f6b6457e083a465d786f75fe59853d884cce44735e6f4ec345a502886194f09a87253d67da26469706673582212201dc19c42cb867a7cfb7350efd8aed170218005c6198d901b8f9d2090e2779c9264736f6c63430008000033",
  "linkReferences": {},
  "deployedLinkReferences": {}
}