{
  "_format": "hh-sol-artifact-1",
  "contractName": "SimpleTrade",
  "sourceName": "contracts/trade/SimpleTrade.sol",
  "abi": [
    {
      "inputs": [
        {
          "internalType": "address",
          "name": "buyer_",
          "type": "address"
        },
        {
          "internalType": "address",
          "name": "seller_",
          "type": "address"
        },
        {
          "internalType": "uint256",
          "name": "price_",
          "type": "uint256"
        },
        {
          "internalType": "string",
          "name": "metaEvidence",
          "type": "string"
        }
      ],
      "stateMutability": "nonpayable",
      "type": "constructor"
    },
    {
      "anonymous": false,
      "inputs": [
        {
          "indexed": true,
          "internalType": "address",
          "name": "initiator",
          "type": "address"
        }
      ],
      "name": "Cancelled",
      "type": "event"
    },
    {
      "anonymous": false,
      "inputs": [
        {
          "indexed": true,
          "internalType": "address",
          "name": "initiator",
          "type": "address"
        }
      ],
      "name": "Completed",
      "type": "event"
    },
    {
      "anonymous": false,
      "inputs": [
        {
          "indexed": false,
          "internalType": "uint256",
          "name": "weiAmount",
          "type": "uint256"
        }
      ],
      "name": "Deposited",
      "type": "event"
    },
    {
      "anonymous": false,
      "inputs": [
        {
          "indexed": true,
          "internalType": "contract Arbitrator",
          "name": "_arbitrator",
          "type": "address"
        },
        {
          "indexed": true,
          "internalType": "uint256",
          "name": "_disputeID",
          "type": "uint256"
        },
        {
          "indexed": false,
          "internalType": "uint256",
          "name": "_metaEvidenceID",
          "type": "uint256"
        },
        {
          "indexed": false,
          "internalType": "uint256",
          "name": "_evidenceGroupID",
          "type": "uint256"
        }
      ],
      "name": "Dispute",
      "type": "event"
    },
    {
      "anonymous": false,
      "inputs": [
        {
          "indexed": true,
          "internalType": "contract Arbitrator",
          "name": "_arbitrator",
          "type": "address"
        },
        {
          "indexed": true,
          "internalType": "uint256",
          "name": "_evidenceGroupID",
          "type": "uint256"
        },
        {
          "indexed": true,
          "internalType": "address",
          "name": "_party",
          "type": "address"
        },
        {
          "indexed": false,
          "internalType": "string",
          "name": "_evidence",
          "type": "string"
        }
      ],
      "name": "Evidence",
      "type": "event"
    },
    {
      "anonymous": false,
      "inputs": [],
      "name": "FullPricePaid",
      "type": "event"
    },
    {
      "anonymous": false,
      "inputs": [
        {
          "indexed": true,
          "internalType": "uint256",
          "name": "_metaEvidenceID",
          "type": "uint256"
        },
        {
          "indexed": false,
          "internalType": "string",
          "name": "_evidence",
          "type": "string"
        }
      ],
      "name": "MetaEvidence",
      "type": "event"
    },
    {
      "anonymous": false,
      "inputs": [],
      "name": "Reclaimed",
      "type": "event"
    },
    {
      "anonymous": false,
      "inputs": [
        {
          "indexed": true,
          "internalType": "contract Arbitrator",
          "name": "_arbitrator",
          "type": "address"
        },
        {
          "indexed": true,
          "internalType": "uint256",
          "name": "_disputeID",
          "type": "uint256"
        },
        {
          "indexed": false,
          "internalType": "uint256",
          "name": "_ruling",
          "type": "uint256"
        }
      ],
      "name": "Ruling",
      "type": "event"
    },
    {
      "anonymous": false,
      "inputs": [],
      "name": "Submitted",
      "type": "event"
    },
    {
      "anonymous": false,
      "inputs": [
        {
          "indexed": true,
          "internalType": "address",
          "name": "payee",
          "type": "address"
        },
        {
          "indexed": false,
          "internalType": "uint256",
          "name": "weiAmount",
          "type": "uint256"
        }
      ],
      "name": "Withdrawn",
      "type": "event"
    },
    {
      "inputs": [],
      "name": "arbitrationFeeDepositPeriod",
      "outputs": [
        {
          "internalType": "uint256",
          "name": "",
          "type": "uint256"
        }
      ],
      "stateMutability": "view",
      "type": "function"
    },
    {
      "inputs": [],
      "name": "arbitrationStatus",
      "outputs": [
        {
          "internalType": "enum Arbitrable.ArbitrationStatus",
          "name": "",
          "type": "uint8"
        }
      ],
      "stateMutability": "view",
      "type": "function"
    },
    {
      "inputs": [],
      "name": "arbitrator",
      "outputs": [
        {
          "internalType": "contract Arbitrator",
          "name": "",
          "type": "address"
        }
      ],
      "stateMutability": "view",
      "type": "function"
    },
    {
      "inputs": [],
      "name": "balance",
      "outputs": [
        {
          "internalType": "uint256",
          "name": "",
          "type": "uint256"
        }
      ],
      "stateMutability": "view",
      "type": "function"
    },
    {
      "inputs": [],
      "name": "buyer",
      "outputs": [
        {
          "internalType": "address",
          "name": "",
          "type": "address"
        }
      ],
      "stateMutability": "view",
      "type": "function"
    },
    {
      "inputs": [],
      "name": "cancel",
      "outputs": [],
      "stateMutability": "nonpayable",
      "type": "function"
    },
    {
      "inputs": [],
      "name": "challengeReclaim",
      "outputs": [],
      "stateMutability": "payable",
      "type": "function"
    },
    {
      "inputs": [],
      "name": "confirm",
      "outputs": [],
      "stateMutability": "nonpayable",
      "type": "function"
    },
    {
      "inputs": [],
      "name": "createdAt",
      "outputs": [
        {
          "internalType": "uint256",
          "name": "",
          "type": "uint256"
        }
      ],
      "stateMutability": "view",
      "type": "function"
    },
    {
      "inputs": [],
      "name": "deposit",
      "outputs": [],
      "stateMutability": "payable",
      "type": "function"
    },
    {
      "inputs": [],
      "name": "price",
      "outputs": [
        {
          "internalType": "uint256",
          "name": "",
          "type": "uint256"
        }
      ],
      "stateMutability": "view",
      "type": "function"
    },
    {
      "inputs": [],
      "name": "reclaim",
      "outputs": [],
      "stateMutability": "payable",
      "type": "function"
    },
    {
      "inputs": [],
      "name": "reclaimedAt",
      "outputs": [
        {
          "internalType": "uint256",
          "name": "",
          "type": "uint256"
        }
      ],
      "stateMutability": "view",
      "type": "function"
    },
    {
      "inputs": [],
      "name": "reclamationPeriod",
      "outputs": [
        {
          "internalType": "uint256",
          "name": "",
          "type": "uint256"
        }
      ],
      "stateMutability": "view",
      "type": "function"
    },
    {
      "inputs": [
        {
          "internalType": "uint256",
          "name": "_disputeID",
          "type": "uint256"
        },
        {
          "internalType": "uint256",
          "name": "_ruling",
          "type": "uint256"
        }
      ],
      "name": "rule",
      "outputs": [],
      "stateMutability": "nonpayable",
      "type": "function"
    },
    {
      "inputs": [],
      "name": "seller",
      "outputs": [
        {
          "internalType": "address",
          "name": "",
          "type": "address"
        }
      ],
      "stateMutability": "view",
      "type": "function"
    },
    {
      "inputs": [],
      "name": "status",
      "outputs": [
        {
          "internalType": "enum SimpleTrade.Status",
          "name": "",
          "type": "uint8"
        }
      ],
      "stateMutability": "view",
      "type": "function"
    },
    {
      "inputs": [],
      "name": "submit",
      "outputs": [],
      "stateMutability": "nonpayable",
      "type": "function"
    },
    {
      "inputs": [
        {
          "internalType": "string",
          "name": "evidence",
          "type": "string"
        }
      ],
      "name": "submitEvidence",
      "outputs": [],
      "stateMutability": "nonpayable",
      "type": "function"
    },
    {
      "inputs": [],
      "name": "submittedAt",
      "outputs": [
        {
          "internalType": "uint256",
          "name": "",
          "type": "uint256"
        }
      ],
      "stateMutability": "view",
      "type": "function"
    }
  ],
  "bytecode": "0x60806040523480156200001157600080fd5b50604051620017f5380380620017f583398101604081905262000034916200010a565b600080546001600160a01b03199081166001600160a01b0387811691909117835560018054831691871691909117905560028054735badcee6a4e3dc11e6441400982676b799e1f5149216821790556004805460ff19169055604051909183917f61606860eb6c87306811e2695215385101daab53bd6ab4e9f9049aead9363c7d90620000c3908490620001e8565b60405180910390a2505050600555505060006006556004805461ff00191690554260075562000266565b80516001600160a01b03811681146200010557600080fd5b919050565b6000806000806080858703121562000120578384fd5b6200012b85620000ed565b93506200013b60208601620000ed565b6040860151606087015191945092506001600160401b03808211156200015f578283fd5b818701915087601f83011262000173578283fd5b81518181111562000188576200018862000250565b604051601f8201601f191681016020018381118282101715620001af57620001af62000250565b6040528181528382016020018a1015620001c7578485fd5b620001da8260208301602087016200021d565b969995985093965050505050565b6000602082528251806020840152620002098160408501602087016200021d565b601f01601f19169190910160400192915050565b60005b838110156200023a57818101518382015260200162000220565b838111156200024a576000848401525b50505050565b634e487b7160e01b600052604160045260246000fd5b61157f80620002766000396000f3fe6080604052600436106100ef5760003560e01c806308551a53146100f45780631ca107991461011f578063200d2ed214610141578063311a6c5614610163578063345a47ea146101855780635bcb2fc61461019a5780636b0aac71146101af5780636cc6cde1146101c45780637022b58e146101d95780637150d8ae146101ee578063762b82951461018557806380e9071b14610203578063a035b1fe1461020b578063b69ef8a814610220578063bac91e2e14610235578063cac2c83714610255578063cf09e0d01461025d578063d0e30db014610272578063ea8a1af01461027a578063f71e3e051461028f575b600080fd5b34801561010057600080fd5b506101096102b1565b6040516101169190610eb2565b60405180910390f35b34801561012b57600080fd5b506101346102c0565b6040516101169190611449565b34801561014d57600080fd5b506101566102c6565b6040516101169190610ee0565b34801561016f57600080fd5b5061018361017e366004610e91565b6102d4565b005b34801561019157600080fd5b506101346103c3565b3480156101a657600080fd5b506101836103ca565b3480156101bb57600080fd5b5061013461047b565b3480156101d057600080fd5b50610109610481565b3480156101e557600080fd5b50610183610490565b3480156101fa57600080fd5b5061010961053d565b61018361054c565b34801561021757600080fd5b5061013461078f565b34801561022c57600080fd5b50610134610795565b34801561024157600080fd5b50610183610250366004610dd9565b61079b565b61018361086e565b34801561026957600080fd5b50610134610a5e565b610183610a64565b34801561028657600080fd5b50610183610b29565b34801561029b57600080fd5b506102a4610c59565b6040516101169190610ec6565b6001546001600160a01b031681565b60085481565b600454610100900460ff1681565b6002546001600160a01b031633146103075760405162461bcd60e51b81526004016102fe90611111565b60405180910390fd5b600260045460ff16600381111561032e57634e487b7160e01b600052602160045260246000fd5b1461034b5760405162461bcd60e51b81526004016102fe90610ffb565b600281111561036c5760405162461bcd60e51b81526004016102fe906110dc565b6004805460ff19166003179055604051829033907f394027a5fa6e098a1191094d1719d6929b9abc535fcc0c8f448d6a4e75622276906103ad908590611449565b60405180910390a36103bf8282610c62565b5050565b6203f48081565b6001546001600160a01b031633146103f45760405162461bcd60e51b81526004016102fe906112f1565b600160048054610100900460ff169081111561042057634e487b7160e01b600052602160045260246000fd5b1461043d5760405162461bcd60e51b81526004016102fe906113fb565b426008556004805461ff0019166102001790556040517fb19cc2acddd38e823dda4f74da35ed6226d707760fa5b982a1aa5215fc89445890600090a1565b60035481565b6002546001600160a01b031681565b6000546001600160a01b031633146104ba5760405162461bcd60e51b81526004016102fe90611334565b600260048054610100900460ff16908111156104e657634e487b7160e01b600052602160045260246000fd5b1480156105175750600060045460ff16600381111561051557634e487b7160e01b600052602160045260246000fd5b145b6105335760405162461bcd60e51b81526004016102fe906113af565b61053b610c7c565b565b6000546001600160a01b031681565b6000546001600160a01b031633146105765760405162461bcd60e51b81526004016102fe90611334565b600260048054610100900460ff16908111156105a257634e487b7160e01b600052602160045260246000fd5b146105bf5760405162461bcd60e51b81526004016102fe906113af565b600060045460ff1660038111156105e657634e487b7160e01b600052602160045260246000fd5b14806106165750600160045460ff16600381111561061457634e487b7160e01b600052602160045260246000fd5b145b6106325760405162461bcd60e51b81526004016102fe90610f47565b6203f480600854426106449190611490565b11156106625760405162461bcd60e51b81526004016102fe9061120f565b600060045460ff16600381111561068957634e487b7160e01b600052602160045260246000fd5b14156107585760025460405163f7434ea960e01b81526001600160a01b039091169063f7434ea9906106bd90600401611364565b60206040518083038186803b1580156106d557600080fd5b505afa1580156106e9573d6000803e3d6000fd5b505050506040513d601f19601f8201168201806040525081019061070d9190610e79565b341461072b5760405162461bcd60e51b81526004016102fe90611294565b346006600082825461073d9190611478565b9091555050426003556004805460ff1916600117905561053b565b6203f4806003544261076a9190611490565b116107875760405162461bcd60e51b81526004016102fe90611161565b61053b610d2b565b60055481565b60065481565b6000546001600160a01b03163314806107be57506001546001600160a01b031633145b6107da5760405162461bcd60e51b81526004016102fe90611375565b600360045460ff16600381111561080157634e487b7160e01b600052602160045260246000fd5b141561081f5760405162461bcd60e51b81526004016102fe90611052565b60025460405133916000916001600160a01b03909116907fdccf2f8b2cc26eafcd61905cba744cff4b81d14740725f6376390dc6298a6a3c90610863908690610ef4565b60405180910390a450565b6001546001600160a01b031633146108985760405162461bcd60e51b81526004016102fe906112f1565b600160045460ff1660038111156108bf57634e487b7160e01b600052602160045260246000fd5b146108dc5760405162461bcd60e51b81526004016102fe90611254565b60025460405163f7434ea960e01b81526001600160a01b039091169063f7434ea99061090a90600401611364565b60206040518083038186803b15801561092257600080fd5b505afa158015610936573d6000803e3d6000fd5b505050506040513d601f19601f8201168201806040525081019061095a9190610e79565b34146109785760405162461bcd60e51b81526004016102fe90610f92565b6002805460405163c13517e160e01b81526000926001600160a01b039092169163c13517e19134916109ac91600401611452565b6020604051808303818588803b1580156109c557600080fd5b505af11580156109d9573d6000803e3d6000fd5b50505050506040513d601f19601f820116820180604052508101906109fe9190610e79565b6004805460ff191660029081179091555460405191925082916001600160a01b03909116907f74baab670a4015ab2f1b467c5252a96141a2573f2908e58a92081e80d3cfde3d90610a5390600090819061146a565b60405180910390a350565b60075481565b6000546001600160a01b03163314610a8e5760405162461bcd60e51b81526004016102fe90611334565b60003490508060066000828254610aa59190611478565b90915550506040517f2a89b2e3d580398d6dc2db5e0f336b52602bbaa51afa9bb5cdf59239cf0d2bea90610ada908390611449565b60405180910390a160055460065410610b26576004805461ff0019166101001790556040517f59f10b73e5d5e52cd6c3c92c5e7c118123db093f760ef7594dea33087a1bfe9290600090a15b50565b6000546001600160a01b0316331480610b4c57506001546001600160a01b031633145b610b685760405162461bcd60e51b81526004016102fe90611375565b600060048054610100900460ff1690811115610b9457634e487b7160e01b600052602160045260246000fd5b1480610bc95750600160048054610100900460ff1690811115610bc757634e487b7160e01b600052602160045260246000fd5b145b610be55760405162461bcd60e51b81526004016102fe90611089565b6001546001600160a01b0316331480610c3d57506000546001600160a01b031633148015610c3d5750600160048054610100900460ff1690811115610c3a57634e487b7160e01b600052602160045260246000fd5b14155b6107875760405162461bcd60e51b81526004016102fe906111b8565b60045460ff1681565b6001811415610c7857610c73610d2b565b6103bf565b6103bf5b6001546006546040516001600160a01b039092169181156108fc0291906000818181858888f19350505050158015610cb8573d6000803e3d6000fd5b506001546006546040516001600160a01b039092169160008051602061152a83398151915291610ce791611449565b60405180910390a26004805461ff00191661030017905560405133907fa1026cbe28583bb9d49fa77a384dd9ae2610003b8b30e30bc20452c1e16a0a4490600090a2565b600080546006546040516001600160a01b039092169281156108fc029290818181858888f19350505050158015610d66573d6000803e3d6000fd5b506000546006546040516001600160a01b039092169160008051602061152a83398151915291610d9591611449565b60405180910390a26004805461ff00191661040017905560405133907f398bd6b21ae4164ec322fb0eb8c2eb6277f36fd41903fbbed594dfe12559128190600090a2565b60006020808385031215610deb578182fd5b82356001600160401b0380821115610e01578384fd5b818501915085601f830112610e14578384fd5b813581811115610e2657610e266114d3565b604051601f8201601f1916810185018381118282101715610e4957610e496114d3565b6040528181528382018501881015610e5f578586fd5b818585018683013790810190930193909352509392505050565b600060208284031215610e8a578081fd5b5051919050565b60008060408385031215610ea3578081fd5b50508035926020909101359150565b6001600160a01b0391909116815260200190565b6020810160048310610eda57610eda6114bd565b91905290565b6020810160058310610eda57610eda6114bd565b6000602080835283518082850152825b81811015610f2057858101830151858201604001528201610f04565b81811115610f315783604083870101525b50601f01601f1916929092016040019392505050565b6020808252603d908201526000805160206114ea83398151915260408201527f696e20696e697469616c206f72207265636c61696d6564207374617465000000606082015260800190565b60208082526043908201527f53696d706c6554726164653a2063616e2774206368616c6c656e67652072656360408201527f6c61696d20776974686f757420706179696e67206172626974726174696f6e2060608201526266656560e81b608082015260a00190565b60208082526037908201527f41726269747261626c653a2074686572652073686f756c64206265206469737060408201527675746520746f206578656375746520612072756c696e6760481b606082015260800190565b6020808252601e908201527f53696d706c6554726164653a207472616465206973207265736f6c7665640000604082015260600190565b60208082526033908201527f53696d706c6554726164653a2063616e27742063616e63656c207472616465206040820152721bdb98d9481a5d09dcc81cdd589b5a5d1d1959606a1b606082015260800190565b6020808252818101527f41726269747261626c653a2072756c696e67206f7574206f6620626f756e6473604082015260600190565b60208082526030908201527f41726269747261626c653a2063616e206f6e6c792062652063616c6c6564206260408201526f3c903a34329030b93134ba3930ba37b960811b606082015260800190565b60208082526037908201527f53696d706c6554726164653a2073656c6c6572207374696c6c206861732074696040820152766d6520746f206368616c6c656e6765207265636c61696d60481b606082015260800190565b60208082526037908201527f53696d706c6554726164653a2063616e27742063616e63656c206f6e636520666040820152761d5b1b081c1c9a58d9481a185cc81899595b881c185a59604a1b606082015260800190565b60208082526025908201527f53696d706c6554726164653a207265636c616d6174696f6e20706572696f6420604082015264195b99195960da1b606082015260800190565b60208082526032908201526000805160206114ea833981519152604082015271696e207265636c61696d656420737461746560701b606082015260800190565b6020808252603d908201527f53696d706c6554726164653a2063616e2774207265636c61696d20776974686f60408201527f7574206465706f736974696e67206172626974726174696f6e20666565000000606082015260800190565b60208082526023908201527f4261736554726164653a2063616c6c6572206973206e6f74207468652073656c6040820152623632b960e91b606082015260800190565b602080825260229082015260008051602061150a83398151915260408201526132b960f11b606082015260800190565b602080825260009082015260400190565b6020808252602c9082015260008051602061150a83398151915260408201526b32b91037b91039b2b63632b960a11b606082015260800190565b6020808252602c908201527f53696d706c6554726164653a207472616465206973206e6f7420696e2073756260408201526b6d697474656420737461746560a01b606082015260800190565b6020808252602e908201527f53696d706c6554726164653a20747261646520707269636520686173206e6f7460408201526d081899595b881c185a59081e595d60921b606082015260800190565b90815260200190565b90815260406020820181905260009082015260600190565b918252602082015260400190565b6000821982111561148b5761148b6114a7565b500190565b6000828210156114a2576114a26114a7565b500390565b634e487b7160e01b600052601160045260246000fd5b634e487b7160e01b600052602160045260246000fd5b634e487b7160e01b600052604160045260246000fdfe53696d706c6554726164653a206172626974726174696f6e206973206e6f74204261736554726164653a2063616c6c6572206973206e6f7420746865206275797084f5476618d8e60b11ef0d7d3f06914655adb8793e28ff7f018d4c76d505d5a264697066735822122050ddf60ee4c866b324e551e78a42041229eb10cbb5149a861608471098c8c93c64736f6c63430008000033",
  "linkReferences": {},
  "deployedLinkReferences": {}
}