{
  "_format": "hh-sol-artifact-1",
  "contractName": "SimpleBet",
  "sourceName": "contracts/bets/SimpleBet.sol",
  "abi": [
    {
      "inputs": [
        {
          "internalType": "address",
          "name": "partyA_",
          "type": "address"
        },
        {
          "internalType": "address",
          "name": "partyB_",
          "type": "address"
        },
        {
          "internalType": "uint256",
          "name": "pricePartyA_",
          "type": "uint256"
        },
        {
          "internalType": "uint256",
          "name": "pricePartyB_",
          "type": "uint256"
        },
        {
          "internalType": "uint256",
          "name": "deadline_",
          "type": "uint256"
        },
        {
          "internalType": "string",
          "name": "metaEvidence",
          "type": "string"
        }
      ],
      "stateMutability": "nonpayable",
      "type": "constructor"
    },
    {
      "anonymous": false,
      "inputs": [],
      "name": "BetArbitrationStarted",
      "type": "event"
    },
    {
      "anonymous": false,
      "inputs": [],
      "name": "BetStarted",
      "type": "event"
    },
    {
      "anonymous": false,
      "inputs": [
        {
          "indexed": true,
          "internalType": "address",
          "name": "winner",
          "type": "address"
        }
      ],
      "name": "Completed",
      "type": "event"
    },
    {
      "anonymous": false,
      "inputs": [
        {
          "indexed": true,
          "internalType": "address",
          "name": "depositor",
          "type": "address"
        }
      ],
      "name": "Deposited",
      "type": "event"
    },
    {
      "anonymous": false,
      "inputs": [
        {
          "indexed": true,
          "internalType": "contract Arbitrator",
          "name": "_arbitrator",
          "type": "address"
        },
        {
          "indexed": true,
          "internalType": "uint256",
          "name": "_disputeID",
          "type": "uint256"
        },
        {
          "indexed": false,
          "internalType": "uint256",
          "name": "_metaEvidenceID",
          "type": "uint256"
        },
        {
          "indexed": false,
          "internalType": "uint256",
          "name": "_evidenceGroupID",
          "type": "uint256"
        }
      ],
      "name": "Dispute",
      "type": "event"
    },
    {
      "anonymous": false,
      "inputs": [
        {
          "indexed": true,
          "internalType": "contract Arbitrator",
          "name": "_arbitrator",
          "type": "address"
        },
        {
          "indexed": true,
          "internalType": "uint256",
          "name": "_evidenceGroupID",
          "type": "uint256"
        },
        {
          "indexed": true,
          "internalType": "address",
          "name": "_party",
          "type": "address"
        },
        {
          "indexed": false,
          "internalType": "string",
          "name": "_evidence",
          "type": "string"
        }
      ],
      "name": "Evidence",
      "type": "event"
    },
    {
      "anonymous": false,
      "inputs": [
        {
          "indexed": true,
          "internalType": "uint256",
          "name": "_metaEvidenceID",
          "type": "uint256"
        },
        {
          "indexed": false,
          "internalType": "string",
          "name": "_evidence",
          "type": "string"
        }
      ],
      "name": "MetaEvidence",
      "type": "event"
    },
    {
      "anonymous": false,
      "inputs": [],
      "name": "Reclaimed",
      "type": "event"
    },
    {
      "anonymous": false,
      "inputs": [
        {
          "indexed": true,
          "internalType": "contract Arbitrator",
          "name": "_arbitrator",
          "type": "address"
        },
        {
          "indexed": true,
          "internalType": "uint256",
          "name": "_disputeID",
          "type": "uint256"
        },
        {
          "indexed": false,
          "internalType": "uint256",
          "name": "_ruling",
          "type": "uint256"
        }
      ],
      "name": "Ruling",
      "type": "event"
    },
    {
      "inputs": [],
      "name": "arbitrationFeeDepositPeriod",
      "outputs": [
        {
          "internalType": "uint256",
          "name": "",
          "type": "uint256"
        }
      ],
      "stateMutability": "view",
      "type": "function"
    },
    {
      "inputs": [],
      "name": "arbitrationStatus",
      "outputs": [
        {
          "internalType": "enum Arbitrable.ArbitrationStatus",
          "name": "",
          "type": "uint8"
        }
      ],
      "stateMutability": "view",
      "type": "function"
    },
    {
      "inputs": [],
      "name": "arbitrator",
      "outputs": [
        {
          "internalType": "contract Arbitrator",
          "name": "",
          "type": "address"
        }
      ],
      "stateMutability": "view",
      "type": "function"
    },
    {
      "inputs": [],
      "name": "balanceArbitrationFee",
      "outputs": [
        {
          "internalType": "uint256",
          "name": "",
          "type": "uint256"
        }
      ],
      "stateMutability": "view",
      "type": "function"
    },
    {
      "inputs": [],
      "name": "balancePartyA",
      "outputs": [
        {
          "internalType": "uint256",
          "name": "",
          "type": "uint256"
        }
      ],
      "stateMutability": "view",
      "type": "function"
    },
    {
      "inputs": [],
      "name": "balancePartyB",
      "outputs": [
        {
          "internalType": "uint256",
          "name": "",
          "type": "uint256"
        }
      ],
      "stateMutability": "view",
      "type": "function"
    },
    {
      "inputs": [],
      "name": "createdAt",
      "outputs": [
        {
          "internalType": "uint256",
          "name": "",
          "type": "uint256"
        }
      ],
      "stateMutability": "view",
      "type": "function"
    },
    {
      "inputs": [],
      "name": "deadline",
      "outputs": [
        {
          "internalType": "uint256",
          "name": "",
          "type": "uint256"
        }
      ],
      "stateMutability": "view",
      "type": "function"
    },
    {
      "inputs": [],
      "name": "deposit",
      "outputs": [],
      "stateMutability": "payable",
      "type": "function"
    },
    {
      "inputs": [],
      "name": "partyA",
      "outputs": [
        {
          "internalType": "address",
          "name": "",
          "type": "address"
        }
      ],
      "stateMutability": "view",
      "type": "function"
    },
    {
      "inputs": [],
      "name": "partyB",
      "outputs": [
        {
          "internalType": "address",
          "name": "",
          "type": "address"
        }
      ],
      "stateMutability": "view",
      "type": "function"
    },
    {
      "inputs": [],
      "name": "pricePartyA",
      "outputs": [
        {
          "internalType": "uint256",
          "name": "",
          "type": "uint256"
        }
      ],
      "stateMutability": "view",
      "type": "function"
    },
    {
      "inputs": [],
      "name": "pricePartyB",
      "outputs": [
        {
          "internalType": "uint256",
          "name": "",
          "type": "uint256"
        }
      ],
      "stateMutability": "view",
      "type": "function"
    },
    {
      "inputs": [],
      "name": "reclaimedAt",
      "outputs": [
        {
          "internalType": "uint256",
          "name": "",
          "type": "uint256"
        }
      ],
      "stateMutability": "view",
      "type": "function"
    },
    {
      "inputs": [],
      "name": "reclamationPeriod",
      "outputs": [
        {
          "internalType": "uint256",
          "name": "",
          "type": "uint256"
        }
      ],
      "stateMutability": "view",
      "type": "function"
    },
    {
      "inputs": [],
      "name": "resolveBet",
      "outputs": [],
      "stateMutability": "nonpayable",
      "type": "function"
    },
    {
      "inputs": [
        {
          "internalType": "uint256",
          "name": "_disputeID",
          "type": "uint256"
        },
        {
          "internalType": "uint256",
          "name": "_ruling",
          "type": "uint256"
        }
      ],
      "name": "rule",
      "outputs": [],
      "stateMutability": "nonpayable",
      "type": "function"
    },
    {
      "inputs": [],
      "name": "status",
      "outputs": [
        {
          "internalType": "enum SimpleBet.Status",
          "name": "",
          "type": "uint8"
        }
      ],
      "stateMutability": "view",
      "type": "function"
    },
    {
      "inputs": [
        {
          "internalType": "string",
          "name": "evidence",
          "type": "string"
        }
      ],
      "name": "submitEvidence",
      "outputs": [],
      "stateMutability": "nonpayable",
      "type": "function"
    }
  ],
  "bytecode": "0x60806040523480156200001157600080fd5b506040516200122638038062001226833981016040819052620000349162000129565b600080546001600160a01b031916735badcee6a4e3dc11e6441400982676b799e1f51490811782556002805460ff19169055604051909183917f61606860eb6c87306811e2695215385101daab53bd6ab4e9f9049aead9363c7d906200009c9084906200021c565b60405180910390a2505060028054600380546001600160a01b0319166001600160a01b03988916179055600495909555600593909355506006556000600781905560085562010000600160b01b03199091166201000093909216929092021761ff001916905542600a556200029a565b80516001600160a01b03811681146200012457600080fd5b919050565b60008060008060008060c0878903121562000142578182fd5b6200014d876200010c565b95506200015d602088016200010c565b6040880151606089015160808a015160a08b0151939850919650945092506001600160401b038082111562000190578283fd5b818901915089601f830112620001a4578283fd5b815181811115620001b957620001b962000284565b604051601f8201601f191681016020018381118282101715620001e057620001e062000284565b6040528181528382016020018c1015620001f8578485fd5b6200020b82602083016020870162000251565b809450505050509295509295509295565b60006020825282518060208401526200023d81604085016020870162000251565b601f01601f19169190910160400192915050565b60005b838110156200026e57818101518382015260200162000254565b838111156200027e576000848401525b50505050565b634e487b7160e01b600052604160045260246000fd5b610f7c80620002aa6000396000f3fe6080604052600436106100e45760003560e01c80630e718c79146100e957806310e1d8ca14610114578063200d2ed214610136578063290401131461015857806329dcb0cf1461016d578063311a6c5614610182578063345a47ea146101a457806347db7c79146101b957806369d5b466146101ce5780636b0aac71146101e35780636cc6cde1146101f8578063762b8295146101a45780638fced6261461020d578063bac91e2e14610222578063c4b8f2b614610242578063c7959c1814610257578063cf09e0d01461026c578063d0e30db014610281578063f71e3e0514610289575b600080fd5b3480156100f557600080fd5b506100fe6102ab565b60405161010b9190610e46565b60405180910390f35b34801561012057600080fd5b506101296102b1565b60405161010b9190610add565b34801561014257600080fd5b5061014b6102c6565b60405161010b9190610b0b565b34801561016457600080fd5b506101296102d4565b34801561017957600080fd5b506100fe6102e3565b34801561018e57600080fd5b506101a261019d366004610abc565b6102e9565b005b3480156101b057600080fd5b506100fe6103d7565b3480156101c557600080fd5b506100fe6103de565b3480156101da57600080fd5b506100fe6103e4565b3480156101ef57600080fd5b506100fe6103ea565b34801561020457600080fd5b506101296103f0565b34801561021957600080fd5b506101a26103ff565b34801561022e57600080fd5b506101a261023d366004610a04565b610587565b34801561024e57600080fd5b506100fe61065d565b34801561026357600080fd5b506100fe610663565b34801561027857600080fd5b506100fe610669565b6101a261066f565b34801561029557600080fd5b5061029e6108d9565b60405161010b9190610af1565b60095481565b6002546201000090046001600160a01b031681565b600254610100900460ff1681565b6003546001600160a01b031681565b60065481565b6000546001600160a01b0316331461031c5760405162461bcd60e51b815260040161031390610de5565b60405180910390fd5b6002805460ff16600381111561034257634e487b7160e01b600052602160045260246000fd5b1461035f5760405162461bcd60e51b815260040161031390610c38565b60028111156103805760405162461bcd60e51b815260040161031390610d62565b6002805460ff19166003179055604051829033907f394027a5fa6e098a1191094d1719d6929b9abc535fcc0c8f448d6a4e75622276906103c1908590610e46565b60405180910390a36103d382826108e2565b5050565b6203f48081565b60045481565b60075481565b60015481565b6000546001600160a01b031681565b6001600254610100900460ff16600481111561042b57634e487b7160e01b600052602160045260246000fd5b146104485760405162461bcd60e51b815260040161031390610d97565b60065442101561046a5760405162461bcd60e51b815260040161031390610d1d565b6000805460095460405163c13517e160e01b81526001600160a01b039092169163c13517e191906104a090600290600401610e4f565b6020604051808303818588803b1580156104b957600080fd5b505af11580156104cd573d6000803e3d6000fd5b50505050506040513d601f19601f820116820180604052508101906104f29190610aa4565b6002805460ff1916811790556000805460405192935083926001600160a01b03909116917f74baab670a4015ab2f1b467c5252a96141a2573f2908e58a92081e80d3cfde3d9161054491908190610e67565b60405180910390a36002805461ff0019166102001790556040517f4efaad0fe56106633f98cf9f45aa4e33100c3b7e4744abeb046bb1f494764ce090600090a150565b6002546201000090046001600160a01b03163314806105b057506003546001600160a01b031633145b6105cc5760405162461bcd60e51b815260040161031390610cd5565b600360025460ff1660038111156105f357634e487b7160e01b600052602160045260246000fd5b14156106115760405162461bcd60e51b815260040161031390610c04565b600080546040513392916001600160a01b0316907fdccf2f8b2cc26eafcd61905cba744cff4b81d14740725f6376390dc6298a6a3c90610652908690610b1f565b60405180910390a450565b60085481565b60055481565b600a5481565b6002546201000090046001600160a01b031633148061069857506003546001600160a01b031633145b6106b45760405162461bcd60e51b815260040161031390610cd5565b6000600254610100900460ff1660048111156106e057634e487b7160e01b600052602160045260246000fd5b146106fd5760405162461bcd60e51b815260040161031390610c8f565b6000805460405163f7434ea960e01b81526001600160a01b039091169063f7434ea99061072c90600401610e35565b60206040518083038186803b15801561074457600080fd5b505afa158015610758573d6000803e3d6000fd5b505050506040513d601f19601f8201168201806040525081019061077c9190610aa4565b9050600061078b600283610e8d565b905060006107998234610ead565b6002549091506201000090046001600160a01b03163314156107f35760045481146107d65760405162461bcd60e51b815260040161031390610bbb565b80600760008282546107e89190610e75565b9091555061082c9050565b60055481146108145760405162461bcd60e51b815260040161031390610b72565b80600860008282546108269190610e75565b90915550505b816009600082825461083e9190610e75565b90915550506004546007541480156108595750600554600854145b8015610866575082600954145b156108a8576002805461ff0019166101001790556040517fddf0cabc180eeed2e5bf96eb969cbb08929a8ce2e66520183e54fe17a8e6a36e90600090a16108d4565b60405133907f20a3fe276908af20d1fa2f8f48225ac6a1997eb2d38695c580adeb4124a1a59b90600090a25b505050565b60025460ff1681565b801580156109485760028054906101000a90046001600160a01b03166001600160a01b03166108fc60085460075461091a9190610e75565b6040518115909202916000818181858888f19350505050158015610942573d6000803e3d6000fd5b50610994565b6003546008546007546001600160a01b03909216916108fc9161096a91610e75565b6040518115909202916000818181858888f19350505050158015610992573d6000803e3d6000fd5b505b6002805461ff00191661030017905580156109d957600254604051620100009091046001600160a01b031690600080516020610f2783398151915290600090a26108d4565b6003546040516001600160a01b0390911690600080516020610f2783398151915290600090a2505050565b60006020808385031215610a16578182fd5b82356001600160401b0380821115610a2c578384fd5b818501915085601f830112610a3f578384fd5b813581811115610a5157610a51610ef0565b604051601f8201601f1916810185018381118282101715610a7457610a74610ef0565b6040528181528382018501881015610a8a578586fd5b818585018683013790810190930193909352509392505050565b600060208284031215610ab5578081fd5b5051919050565b60008060408385031215610ace578081fd5b50508035926020909101359150565b6001600160a01b0391909116815260200190565b6020810160048310610b0557610b05610eda565b91905290565b6020810160058310610b0557610b05610eda565b6000602080835283518082850152825b81811015610b4b57858101830151858201604001528201610b2f565b81811115610b5c5783604083870101525b50601f01601f1916929092016040019392505050565b6020808252603b90820152600080516020610f0783398151915260408201527a756e7420287072696365506172747942202b20666565202f20322960281b606082015260800190565b6020808252603b90820152600080516020610f0783398151915260408201527a756e7420287072696365506172747941202b20666565202f20322960281b606082015260800190565b6020808252601a908201527914da5b5c1b1950995d0e8818995d081a5cc81c995cdbdb1d995960321b604082015260600190565b60208082526037908201527f41726269747261626c653a2074686572652073686f756c64206265206469737060408201527675746520746f206578656375746520612072756c696e6760481b606082015260800190565b60208082526026908201527f53696d706c654265743a20626574206973206e6f7420696e20696e697469616c60408201526520706861736560d01b606082015260800190565b60208082526028908201527f53696d706c654265743a2063616c6c6572206973206e6f742070617274206f66604082015267081d1a194818995d60c21b606082015260800190565b60208082526025908201527f53696d706c654265743a20646561646c696e65206861736e277420706173736560408201526419081e595d60da1b606082015260800190565b6020808252818101527f41726269747261626c653a2072756c696e67206f7574206f6620626f756e6473604082015260600190565b6020808252602e908201527f53696d706c654265743a207061727469657320686176656e277420706169642060408201526d1d1a195a5c8818995d1cc81e595d60921b606082015260800190565b60208082526030908201527f41726269747261626c653a2063616e206f6e6c792062652063616c6c6564206260408201526f3c903a34329030b93134ba3930ba37b960811b606082015260800190565b602080825260009082015260400190565b90815260200190565b90815260406020820181905260009082015260600190565b918252602082015260400190565b60008219821115610e8857610e88610ec4565b500190565b600082610ea857634e487b7160e01b81526012600452602481fd5b500490565b600082821015610ebf57610ebf610ec4565b500390565b634e487b7160e01b600052601160045260246000fd5b634e487b7160e01b600052602160045260246000fd5b634e487b7160e01b600052604160045260246000fdfe53696d706c654265743a206d7573742070617920726571756972656420616d6fa1026cbe28583bb9d49fa77a384dd9ae2610003b8b30e30bc20452c1e16a0a44a26469706673582212204db4a955e6be8bdb830508c94d3e77d57cc072aba3b4335c3f1deac5d9dadba464736f6c63430008000033",
  "linkReferences": {},
  "deployedLinkReferences": {}
}